{
  "address": "0x05dcaea297efcb973fb4b9d92c1f2c95dfa1cca1",
  "abi": [
    {
      "inputs": [],
      "stateMutability": "nonpayable",
      "type": "constructor"
    },
    {
      "anonymous": false,
      "inputs": [
        {
          "indexed": true,
          "internalType": "address",
          "name": "user",
          "type": "address"
        },
        {
          "indexed": true,
          "internalType": "address",
          "name": "newAdmin",
          "type": "address"
        }
      ],
      "name": "AdminUpdated",
      "type": "event"
    },
    {
      "anonymous": false,
      "inputs": [
        {
          "indexed": false,
          "internalType": "address",
          "name": "tokenAddress",
          "type": "address"
        },
        {
          "indexed": false,
          "internalType": "address",
          "name": "guessGameAddress",
          "type": "address"
        }
      ],
      "name": "GuessGameCreated",
      "type": "event"
    },
    {
      "anonymous": false,
      "inputs": [
        {
          "indexed": false,
          "internalType": "address",
          "name": "implementation",
          "type": "address"
        },
        {
          "indexed": false,
          "internalType": "address",
          "name": "previousImplementation",
          "type": "address"
        }
      ],
      "name": "GuessGameImplementationUpdated",
      "type": "event"
    },
    {
      "anonymous": false,
      "inputs": [
        {
          "indexed": false,
          "internalType": "uint8",
          "name": "version",
          "type": "uint8"
        }
      ],
      "name": "Initialized",
      "type": "event"
    },
    {
      "inputs": [],
      "name": "admin",
      "outputs": [
        {
          "internalType": "address",
          "name": "",
          "type": "address"
        }
      ],
      "stateMutability": "view",
      "type": "function"
    },
    {
      "inputs": [
        {
          "internalType": "address",
          "name": "_tokenAddress",
          "type": "address"
        },
        {
          "internalType": "uint256",
          "name": "_startTime",
          "type": "uint256"
        },
        {
          "internalType": "uint256",
          "name": "_interval",
          "type": "uint256"
        },
        {
          "internalType": "uint256",
          "name": "_interval_nums",
          "type": "uint256"
        }
      ],
      "name": "createGame",
      "outputs": [
        {
          "internalType": "address",
          "name": "guessGameAddress",
          "type": "address"
        }
      ],
      "stateMutability": "nonpayable",
      "type": "function"
    },
    {
      "inputs": [],
      "name": "gameImplementation",
      "outputs": [
        {
          "internalType": "address",
          "name": "",
          "type": "address"
        }
      ],
      "stateMutability": "view",
      "type": "function"
    },
    {
      "inputs": [
        {
          "internalType": "uint256",
          "name": "",
          "type": "uint256"
        }
      ],
      "name": "guessGameAddresses",
      "outputs": [
        {
          "internalType": "address",
          "name": "",
          "type": "address"
        }
      ],
      "stateMutability": "view",
      "type": "function"
    },
    {
      "inputs": [
        {
          "internalType": "address",
          "name": "admin_",
          "type": "address"
        }
      ],
      "name": "initialize",
      "outputs": [],
      "stateMutability": "nonpayable",
      "type": "function"
    },
    {
      "inputs": [
        {
          "internalType": "address",
          "name": "newAdmin",
          "type": "address"
        }
      ],
      "name": "setAdmin",
      "outputs": [],
      "stateMutability": "nonpayable",
      "type": "function"
    },
    {
      "inputs": [
        {
          "internalType": "address",
          "name": "_gameAddress",
          "type": "address"
        }
      ],
      "name": "setFinalNumber",
      "outputs": [],
      "stateMutability": "nonpayable",
      "type": "function"
    },
    {
      "inputs": [
        {
          "internalType": "address",
          "name": "impl_",
          "type": "address"
        },
        {
          "internalType": "bool",
          "name": "upgradeDeployed_",
          "type": "bool"
        }
      ],
      "name": "setImplementation",
      "outputs": [],
      "stateMutability": "nonpayable",
      "type": "function"
    },
    {
      "inputs": [
        {
          "internalType": "address",
          "name": "_gameAddress",
          "type": "address"
        },
        {
          "internalType": "address[]",
          "name": "users",
          "type": "address[]"
        },
        {
          "internalType": "uint256[]",
          "name": "rewards",
          "type": "uint256[]"
        }
      ],
      "name": "setRewardForUsers",
      "outputs": [],
      "stateMutability": "nonpayable",
      "type": "function"
    },
    {
      "inputs": [
        {
          "internalType": "address",
          "name": "_gameAddress",
          "type": "address"
        },
        {
          "internalType": "uint256[]",
          "name": "weights",
          "type": "uint256[]"
        }
      ],
      "name": "setWeightsForGame",
      "outputs": [],
      "stateMutability": "nonpayable",
      "type": "function"
    },
    {
      "inputs": [
        {
          "internalType": "address",
          "name": "_gameAddress",
          "type": "address"
        },
        {
          "internalType": "uint256",
          "name": "_amount",
          "type": "uint256"
        }
      ],
      "name": "withdrawToken",
      "outputs": [],
      "stateMutability": "nonpayable",
      "type": "function"
    }
  ],
  "transactionHash": "0x154e42d8f67429614ccf45164bd471e8c03b4d6f36ab14a8fd28bf12c7c6c21d",
  "args": [],
  "numDeployments": 1,
  "solcInputHash": "30ea8db3481f80ff74f8d11954b2e290",
  "bytecode": "0x608060405234801561001057600080fd5b5061001961001e565b6100de565b600054610100900460ff161561008a5760405162461bcd60e51b815260206004820152602760248201527f496e697469616c697a61626c653a20636f6e747261637420697320696e697469604482015266616c697a696e6760c81b606482015260840160405180910390fd5b60005460ff90811610156100dc576000805460ff191660ff9081179091556040519081527f7f26b83ff96e1f2b6a682f133852f6798a09c465da95921460cefb38474024989060200160405180910390a15b565b611c88806100ed6000396000f3fe60806040523480156200001157600080fd5b5060043610620000b75760003560e01c80639e281a98116200007a5780639e281a98146200014d578063a87b7a1b1462000164578063bb30a974146200017b578063c4d66de81462000192578063f6cf916e14620001a9578063f851a44014620001bd57600080fd5b806329eddcd614620000bc57806351f60d0d14620000ef578063659d4b231462000108578063704b6c02146200011f57806399c01f1b1462000136575b600080fd5b620000d3620000cd366004620009c4565b620001d7565b6040516001600160a01b03909116815260200160405180910390f35b620001066200010036600462000ae4565b620003f6565b005b620001066200011936600462000bc6565b62000492565b620001066200013036600462000bc6565b6200051d565b620000d36200014736600462000beb565b6200055e565b620001066200015e36600462000c05565b62000589565b620001066200017536600462000c32565b6200061d565b620001066200018c36600462000c86565b6200067e565b62000106620001a336600462000bc6565b620007c7565b600254620000d3906001600160a01b031681565b600054620000d3906201000090046001600160a01b031681565b600080546201000090046001600160a01b03163314620002145760405162461bcd60e51b81526004016200020b9062000cc6565b60405180910390fd5b60025430906001600160a01b03166200028b5760405162461bcd60e51b815260206004820152603260248201527f477565737347616d65466163746f72793a20496e76616c69642047756573734760448201527130b6b29034b6b83632b6b2b73a30ba34b7b760711b60648201526084016200020b565b60606000600260009054906101000a90046001600160a01b03168383604051620002b59062000999565b620002c39392919062000cec565b604051809103906000f080158015620002e0573d6000803e3d6000fd5b5060405163344fe42d60e21b81523060048201526001600160a01b038a81166024830152604482018a905260648201899052608482018890529195508592509082169063d13f90b49060a401600060405180830381600087803b1580156200034757600080fd5b505af11580156200035c573d6000803e3d6000fd5b50506001805480820182556000919091527fb10e2d527612073b26eecdfd717e6a320cf44b4afac2b0732d9fcbe2b7fa0cf60180546001600160a01b0319166001600160a01b0388811691821790925560408051928d16835260208301919091527faf960d3a9d226a5b7eba22c3a41ee5c66ad0a1ef35235a7d5beab47863af5fec935001905060405180910390a1505050949350505050565b6000546201000090046001600160a01b03163314620004295760405162461bcd60e51b81526004016200020b9062000cc6565b60405163c87c336b60e01b81526001600160a01b0384169063c87c336b9062000459908590859060040162000d9d565b600060405180830381600087803b1580156200047457600080fd5b505af115801562000489573d6000803e3d6000fd5b50505050505050565b6000546201000090046001600160a01b03163314620004c55760405162461bcd60e51b81526004016200020b9062000cc6565b806001600160a01b0316631c2f03ec6040518163ffffffff1660e01b8152600401600060405180830381600087803b1580156200050157600080fd5b505af115801562000516573d6000803e3d6000fd5b5050505050565b6000546201000090046001600160a01b03163314620005505760405162461bcd60e51b81526004016200020b9062000cc6565b6200055b81620008e2565b50565b600181815481106200056f57600080fd5b6000918252602090912001546001600160a01b0316905081565b6000546201000090046001600160a01b03163314620005bc5760405162461bcd60e51b81526004016200020b9062000cc6565b604051632e1a7d4d60e01b8152600481018290526001600160a01b03831690632e1a7d4d906024015b600060405180830381600087803b1580156200060057600080fd5b505af115801562000615573d6000803e3d6000fd5b505050505050565b6000546201000090046001600160a01b03163314620006505760405162461bcd60e51b81526004016200020b9062000cc6565b6040516371712bed60e11b81526001600160a01b0383169063e2e257da90620005e590849060040162000e01565b6000546201000090046001600160a01b03163314620006b15760405162461bcd60e51b81526004016200020b9062000cc6565b600254604080516001600160a01b03808616825290921660208301527f220b3728f44dcab3c8c0e0927cc2601aae14f90399d72265b42d4275bc4f6932910160405180910390a1600280546001600160a01b0319166001600160a01b038416179055806200071d575050565b60005b600154811015620007c1576001818154811062000741576200074162000e16565b600091825260209091200154604051631b2ce7f360e11b81526001600160a01b03858116600483015290911690633659cfe690602401600060405180830381600087803b1580156200079257600080fd5b505af1158015620007a7573d6000803e3d6000fd5b505050508080620007b89062000e2c565b91505062000720565b505b5050565b600054610100900460ff1615808015620007e85750600054600160ff909116105b80620008045750303b15801562000804575060005460ff166001145b620008695760405162461bcd60e51b815260206004820152602e60248201527f496e697469616c697a61626c653a20636f6e747261637420697320616c72656160448201526d191e481a5b9a5d1a585b1a5e995960921b60648201526084016200020b565b6000805460ff1916600117905580156200088d576000805461ff0019166101001790555b6200089882620008e2565b8015620007c3576000805461ff0019169055604051600181527f7f26b83ff96e1f2b6a682f133852f6798a09c465da95921460cefb38474024989060200160405180910390a15050565b6001600160a01b038116620009445760405162461bcd60e51b815260206004820152602160248201527f43616e206e6f74207365742061646d696e20746f207a65726f206164647265736044820152607360f81b60648201526084016200020b565b6000805462010000600160b01b031916620100006001600160a01b038416908102919091178255604051909133917f101b8081ff3b56bbf45deb824d86a3b0fd38b7e3dd42421105cf8abe9106db0b9190a350565b610dfc8062000e5783390190565b80356001600160a01b0381168114620009bf57600080fd5b919050565b60008060008060808587031215620009db57600080fd5b620009e685620009a7565b966020860135965060408601359560600135945092505050565b634e487b7160e01b600052604160045260246000fd5b604051601f8201601f1916810167ffffffffffffffff8111828210171562000a425762000a4262000a00565b604052919050565b600067ffffffffffffffff82111562000a675762000a6762000a00565b5060051b60200190565b600082601f83011262000a8357600080fd5b8135602062000a9c62000a968362000a4a565b62000a16565b82815260059290921b8401810191818101908684111562000abc57600080fd5b8286015b8481101562000ad9578035835291830191830162000ac0565b509695505050505050565b60008060006060848603121562000afa57600080fd5b62000b0584620009a7565b925060208085013567ffffffffffffffff8082111562000b2457600080fd5b818701915087601f83011262000b3957600080fd5b813562000b4a62000a968262000a4a565b81815260059190911b8301840190848101908a83111562000b6a57600080fd5b938501935b8285101562000b935762000b8385620009a7565b8252938501939085019062000b6f565b96505050604087013592508083111562000bac57600080fd5b505062000bbc8682870162000a71565b9150509250925092565b60006020828403121562000bd957600080fd5b62000be482620009a7565b9392505050565b60006020828403121562000bfe57600080fd5b5035919050565b6000806040838503121562000c1957600080fd5b62000c2483620009a7565b946020939093013593505050565b6000806040838503121562000c4657600080fd5b62000c5183620009a7565b9150602083013567ffffffffffffffff81111562000c6e57600080fd5b62000c7c8582860162000a71565b9150509250929050565b6000806040838503121562000c9a57600080fd5b62000ca583620009a7565b91506020830135801515811462000cbb57600080fd5b809150509250929050565b6020808252600c908201526b15539055551213d49256915160a21b604082015260600190565b600060018060a01b038086168352602081861681850152606060408501528451915081606085015260005b8281101562000d355785810182015185820160800152810162000d17565b8281111562000d48576000608084870101525b5050601f01601f191691909101608001949350505050565b600081518084526020808501945080840160005b8381101562000d925781518752958201959082019060010162000d74565b509495945050505050565b604080825283519082018190526000906020906060840190828701845b8281101562000de15781516001600160a01b03168452928401929084019060010162000dba565b5050508381038285015262000df7818662000d60565b9695505050505050565b60208152600062000be4602083018462000d60565b634e487b7160e01b600052603260045260246000fd5b600060001982141562000e4f57634e487b7160e01b600052601160045260246000fd5b506001019056fe608060405260405162000dfc38038062000dfc8339810160408190526200002691620004a3565b8282828281620000398282600062000053565b506200004790508262000090565b505050505050620005d6565b6200005e83620000eb565b6000825111806200006c5750805b156200008b576200008983836200012d60201b620002581760201c565b505b505050565b7f7e644d79422f17c01e4894b5f4f588d331ebfa28653d42ae832dc59e38c9798f620000bb6200015c565b604080516001600160a01b03928316815291841660208301520160405180910390a1620000e88162000195565b50565b620000f6816200024a565b6040516001600160a01b038216907fbc7cd75a20ee27fd9adebab32041f755214dbc6bffa90cc0225b39da2e5c2d3b90600090a250565b606062000155838360405180606001604052806027815260200162000dd560279139620002fe565b9392505050565b60006200018660008051602062000db583398151915260001b6200037d60201b620002001760201c565b546001600160a01b0316919050565b6001600160a01b038116620002005760405162461bcd60e51b815260206004820152602660248201527f455243313936373a206e65772061646d696e20697320746865207a65726f206160448201526564647265737360d01b60648201526084015b60405180910390fd5b806200022960008051602062000db583398151915260001b6200037d60201b620002001760201c565b80546001600160a01b0319166001600160a01b039290921691909117905550565b62000260816200038060201b620002841760201c565b620002c45760405162461bcd60e51b815260206004820152602d60248201527f455243313936373a206e657720696d706c656d656e746174696f6e206973206e60448201526c1bdd08184818dbdb9d1c9858dd609a1b6064820152608401620001f7565b80620002297f360894a13ba1a3210667c828492db98dca3e2076cc3735a920a3ca505d382bbc60001b6200037d60201b620002001760201c565b6060600080856001600160a01b0316856040516200031d919062000583565b600060405180830381855af49150503d80600081146200035a576040519150601f19603f3d011682016040523d82523d6000602084013e6200035f565b606091505b50909250905062000373868383876200038f565b9695505050505050565b90565b6001600160a01b03163b151590565b6060831562000400578251620003f8576001600160a01b0385163b620003f85760405162461bcd60e51b815260206004820152601d60248201527f416464726573733a2063616c6c20746f206e6f6e2d636f6e74726163740000006044820152606401620001f7565b50816200040c565b6200040c838362000414565b949350505050565b815115620004255781518083602001fd5b8060405162461bcd60e51b8152600401620001f79190620005a1565b80516001600160a01b03811681146200045957600080fd5b919050565b634e487b7160e01b600052604160045260246000fd5b60005b838110156200049157818101518382015260200162000477565b83811115620000895750506000910152565b600080600060608486031215620004b957600080fd5b620004c48462000441565b9250620004d46020850162000441565b60408501519092506001600160401b0380821115620004f257600080fd5b818601915086601f8301126200050757600080fd5b8151818111156200051c576200051c6200045e565b604051601f8201601f19908116603f011681019083821181831017156200054757620005476200045e565b816040528281528960208487010111156200056157600080fd5b6200057483602083016020880162000474565b80955050505050509250925092565b600082516200059781846020870162000474565b9190910192915050565b6020815260008251806020840152620005c281604085016020870162000474565b601f01601f19169190910160400192915050565b6107cf80620005e66000396000f3fe60806040526004361061004e5760003560e01c80633659cfe6146100655780634f1ef286146100855780635c60da1b146100985780638f283970146100c9578063f851a440146100e95761005d565b3661005d5761005b6100fe565b005b61005b6100fe565b34801561007157600080fd5b5061005b610080366004610659565b610110565b61005b610093366004610674565b610157565b3480156100a457600080fd5b506100ad6101c8565b6040516001600160a01b03909116815260200160405180910390f35b3480156100d557600080fd5b5061005b6100e4366004610659565b610203565b3480156100f557600080fd5b506100ad61022d565b61010e610109610293565b61029d565b565b6101186102c1565b6001600160a01b0316336001600160a01b0316141561014f5761014c816040518060200160405280600081525060006102f4565b50565b61014c6100fe565b61015f6102c1565b6001600160a01b0316336001600160a01b031614156101c0576101bb8383838080601f016020809104026020016040519081016040528093929190818152602001838380828437600092019190915250600192506102f4915050565b505050565b6101bb6100fe565b60006101d26102c1565b6001600160a01b0316336001600160a01b031614156101f8576101f3610293565b905090565b6102006100fe565b90565b61020b6102c1565b6001600160a01b0316336001600160a01b0316141561014f5761014c8161031f565b60006102376102c1565b6001600160a01b0316336001600160a01b031614156101f8576101f36102c1565b606061027d838360405180606001604052806027815260200161077360279139610373565b9392505050565b6001600160a01b03163b151590565b60006101f36103eb565b3660008037600080366000845af43d6000803e8080156102bc573d6000f35b3d6000fd5b60007fb53127684a568b3173ae13b9f8a6016e243e63b6e8ee1178d6a717850b5d61035b546001600160a01b0316919050565b6102fd83610413565b60008251118061030a5750805b156101bb576103198383610258565b50505050565b7f7e644d79422f17c01e4894b5f4f588d331ebfa28653d42ae832dc59e38c9798f6103486102c1565b604080516001600160a01b03928316815291841660208301520160405180910390a161014c81610453565b6060600080856001600160a01b0316856040516103909190610723565b600060405180830381855af49150503d80600081146103cb576040519150601f19603f3d011682016040523d82523d6000602084013e6103d0565b606091505b50915091506103e186838387610501565b9695505050505050565b60007f360894a13ba1a3210667c828492db98dca3e2076cc3735a920a3ca505d382bbc6102e5565b61041c8161057f565b6040516001600160a01b038216907fbc7cd75a20ee27fd9adebab32041f755214dbc6bffa90cc0225b39da2e5c2d3b90600090a250565b6001600160a01b0381166104bd5760405162461bcd60e51b815260206004820152602660248201527f455243313936373a206e65772061646d696e20697320746865207a65726f206160448201526564647265737360d01b60648201526084015b60405180910390fd5b807fb53127684a568b3173ae13b9f8a6016e243e63b6e8ee1178d6a717850b5d61035b80546001600160a01b0319166001600160a01b039290921691909117905550565b6060831561056d578251610566576001600160a01b0385163b6105665760405162461bcd60e51b815260206004820152601d60248201527f416464726573733a2063616c6c20746f206e6f6e2d636f6e747261637400000060448201526064016104b4565b5081610577565b6105778383610613565b949350505050565b6001600160a01b0381163b6105ec5760405162461bcd60e51b815260206004820152602d60248201527f455243313936373a206e657720696d706c656d656e746174696f6e206973206e60448201526c1bdd08184818dbdb9d1c9858dd609a1b60648201526084016104b4565b807f360894a13ba1a3210667c828492db98dca3e2076cc3735a920a3ca505d382bbc6104e0565b8151156106235781518083602001fd5b8060405162461bcd60e51b81526004016104b4919061073f565b80356001600160a01b038116811461065457600080fd5b919050565b60006020828403121561066b57600080fd5b61027d8261063d565b60008060006040848603121561068957600080fd5b6106928461063d565b9250602084013567ffffffffffffffff808211156106af57600080fd5b818601915086601f8301126106c357600080fd5b8135818111156106d257600080fd5b8760208285010111156106e457600080fd5b6020830194508093505050509250925092565b60005b838110156107125781810151838201526020016106fa565b838111156103195750506000910152565b600082516107358184602087016106f7565b9190910192915050565b602081526000825180602084015261075e8160408501602087016106f7565b601f01601f1916919091016040019291505056fe416464726573733a206c6f772d6c6576656c2064656c65676174652063616c6c206661696c6564a264697066735822122064040f48b82e9cceffaf2251dd7c76d0a79ef6c36f971c35d309b0712b13058264736f6c63430008090033b53127684a568b3173ae13b9f8a6016e243e63b6e8ee1178d6a717850b5d6103416464726573733a206c6f772d6c6576656c2064656c65676174652063616c6c206661696c6564a2646970667358221220e4626d32c255fa657636f57ae00a97118916a7f7a4ad30b926bf884a5a58573464736f6c63430008090033",
  "devdoc": {
    "kind": "dev",
    "methods": {
      "constructor": {
        "custom:oz-upgrades-unsafe-allow": "constructor"
      }
    },
    "version": 1
  },
  "userdoc": {
    "kind": "user",
    "methods": {},
    "version": 1
  },
  "storageLayout": {
    "storage": [
      {
        "astId": 6,
        "contract": "contracts/GuessGameFactory.sol:GuessGameFactory",
        "label": "_initialized",
        "offset": 0,
        "slot": "0",
        "type": "t_uint8"
      },
      {
        "astId": 9,
        "contract": "contracts/GuessGameFactory.sol:GuessGameFactory",
        "label": "_initializing",
        "offset": 1,
        "slot": "0",
        "type": "t_bool"
      },
      {
        "astId": 4801,
        "contract": "contracts/GuessGameFactory.sol:GuessGameFactory",
        "label": "admin",
        "offset": 2,
        "slot": "0",
        "type": "t_address"
      },
      {
        "astId": 4508,
        "contract": "contracts/GuessGameFactory.sol:GuessGameFactory",
        "label": "guessGameAddresses",
        "offset": 0,
        "slot": "1",
        "type": "t_array(t_address)dyn_storage"
      },
      {
        "astId": 4510,
        "contract": "contracts/GuessGameFactory.sol:GuessGameFactory",
        "label": "gameImplementation",
        "offset": 0,
        "slot": "2",
        "type": "t_address"
      }
    ],
    "types": {
      "t_address": {
        "encoding": "inplace",
        "label": "address",
        "numberOfBytes": "20"
      },
      "t_array(t_address)dyn_storage": {
        "base": "t_address",
        "encoding": "dynamic_array",
        "label": "address[]",
        "numberOfBytes": "32"
      },
      "t_bool": {
        "encoding": "inplace",
        "label": "bool",
        "numberOfBytes": "1"
      },
      "t_uint8": {
        "encoding": "inplace",
        "label": "uint8",
        "numberOfBytes": "1"
      }
    }
  }
}