{
  "address": "0xD855A2306002eD84d5A42e41c6aDb911e5479B11",
  "abi": [
    {
      "inputs": [],
      "stateMutability": "nonpayable",
      "type": "constructor"
    },
    {
      "anonymous": false,
      "inputs": [
        {
          "indexed": false,
          "internalType": "address",
          "name": "staker",
          "type": "address"
        },
        {
          "indexed": false,
          "internalType": "uint256",
          "name": "chosenNumber",
          "type": "uint256"
        },
        {
          "indexed": false,
          "internalType": "uint256",
          "name": "amount",
          "type": "uint256"
        },
        {
          "indexed": false,
          "internalType": "uint256",
          "name": "day",
          "type": "uint256"
        },
        {
          "indexed": false,
          "internalType": "uint256",
          "name": "shares",
          "type": "uint256"
        }
      ],
      "name": "ChooseAndStake",
      "type": "event"
    },
    {
      "anonymous": false,
      "inputs": [
        {
          "indexed": false,
          "internalType": "uint8",
          "name": "version",
          "type": "uint8"
        }
      ],
      "name": "Initialized",
      "type": "event"
    },
    {
      "inputs": [],
      "name": "END_TIME",
      "outputs": [
        {
          "internalType": "uint256",
          "name": "",
          "type": "uint256"
        }
      ],
      "stateMutability": "view",
      "type": "function"
    },
    {
      "inputs": [],
      "name": "INTERVAL",
      "outputs": [
        {
          "internalType": "uint256",
          "name": "",
          "type": "uint256"
        }
      ],
      "stateMutability": "view",
      "type": "function"
    },
    {
      "inputs": [],
      "name": "INTERVAL_NUMS",
      "outputs": [
        {
          "internalType": "uint256",
          "name": "",
          "type": "uint256"
        }
      ],
      "stateMutability": "view",
      "type": "function"
    },
    {
      "inputs": [
        {
          "internalType": "uint256",
          "name": "",
          "type": "uint256"
        }
      ],
      "name": "INTERVAL_WEIGHTS",
      "outputs": [
        {
          "internalType": "uint256",
          "name": "",
          "type": "uint256"
        }
      ],
      "stateMutability": "view",
      "type": "function"
    },
    {
      "inputs": [],
      "name": "REWARD_POOL",
      "outputs": [
        {
          "internalType": "uint256",
          "name": "",
          "type": "uint256"
        }
      ],
      "stateMutability": "view",
      "type": "function"
    },
    {
      "inputs": [],
      "name": "START_TIME",
      "outputs": [
        {
          "internalType": "uint256",
          "name": "",
          "type": "uint256"
        }
      ],
      "stateMutability": "view",
      "type": "function"
    },
    {
      "inputs": [],
      "name": "TOKEN_ADDRESS",
      "outputs": [
        {
          "internalType": "address",
          "name": "",
          "type": "address"
        }
      ],
      "stateMutability": "view",
      "type": "function"
    },
    {
      "inputs": [],
      "name": "TOTAL_SHARE",
      "outputs": [
        {
          "internalType": "uint256",
          "name": "",
          "type": "uint256"
        }
      ],
      "stateMutability": "view",
      "type": "function"
    },
    {
      "inputs": [],
      "name": "UNDERLYING_TOKEN",
      "outputs": [
        {
          "internalType": "contract IERC20",
          "name": "",
          "type": "address"
        }
      ],
      "stateMutability": "view",
      "type": "function"
    },
    {
      "inputs": [
        {
          "internalType": "uint256",
          "name": "_number",
          "type": "uint256"
        },
        {
          "internalType": "uint256",
          "name": "_tokenAmount",
          "type": "uint256"
        }
      ],
      "name": "chooseNumberAndStake",
      "outputs": [],
      "stateMutability": "nonpayable",
      "type": "function"
    },
    {
      "inputs": [],
      "name": "factory",
      "outputs": [
        {
          "internalType": "contract IGuessGameFactory",
          "name": "",
          "type": "address"
        }
      ],
      "stateMutability": "view",
      "type": "function"
    },
    {
      "inputs": [
        {
          "internalType": "address",
          "name": "_factory",
          "type": "address"
        },
        {
          "internalType": "address",
          "name": "_tokenAddress",
          "type": "address"
        },
        {
          "internalType": "uint256",
          "name": "_startTime",
          "type": "uint256"
        },
        {
          "internalType": "uint256",
          "name": "_interval",
          "type": "uint256"
        },
        {
          "internalType": "uint256",
          "name": "_interval_nums",
          "type": "uint256"
        }
      ],
      "name": "initialize",
      "outputs": [],
      "stateMutability": "nonpayable",
      "type": "function"
    },
    {
      "inputs": [
        {
          "internalType": "uint256[]",
          "name": "weights",
          "type": "uint256[]"
        }
      ],
      "name": "setIntervalWeight",
      "outputs": [],
      "stateMutability": "nonpayable",
      "type": "function"
    },
    {
      "inputs": [
        {
          "internalType": "address",
          "name": "",
          "type": "address"
        },
        {
          "internalType": "uint256",
          "name": "",
          "type": "uint256"
        }
      ],
      "name": "userChosenNumbers",
      "outputs": [
        {
          "internalType": "uint256",
          "name": "",
          "type": "uint256"
        }
      ],
      "stateMutability": "view",
      "type": "function"
    },
    {
      "inputs": [
        {
          "internalType": "address",
          "name": "",
          "type": "address"
        },
        {
          "internalType": "uint256",
          "name": "",
          "type": "uint256"
        }
      ],
      "name": "userOperationHistory",
      "outputs": [
        {
          "internalType": "uint256",
          "name": "number",
          "type": "uint256"
        },
        {
          "internalType": "uint256",
          "name": "timestamp",
          "type": "uint256"
        },
        {
          "internalType": "uint256",
          "name": "amount",
          "type": "uint256"
        },
        {
          "internalType": "uint256",
          "name": "shares",
          "type": "uint256"
        },
        {
          "internalType": "uint256",
          "name": "day",
          "type": "uint256"
        }
      ],
      "stateMutability": "view",
      "type": "function"
    },
    {
      "inputs": [
        {
          "internalType": "address",
          "name": "",
          "type": "address"
        },
        {
          "internalType": "uint256",
          "name": "",
          "type": "uint256"
        }
      ],
      "name": "userStakedAmountPerNumber",
      "outputs": [
        {
          "internalType": "uint256",
          "name": "",
          "type": "uint256"
        }
      ],
      "stateMutability": "view",
      "type": "function"
    },
    {
      "inputs": [
        {
          "internalType": "address",
          "name": "",
          "type": "address"
        },
        {
          "internalType": "uint256",
          "name": "",
          "type": "uint256"
        }
      ],
      "name": "userStakedSharePerNumber",
      "outputs": [
        {
          "internalType": "uint256",
          "name": "",
          "type": "uint256"
        }
      ],
      "stateMutability": "view",
      "type": "function"
    },
    {
      "inputs": [
        {
          "internalType": "uint256",
          "name": "_number",
          "type": "uint256"
        }
      ],
      "name": "withdraw",
      "outputs": [],
      "stateMutability": "nonpayable",
      "type": "function"
    }
  ],
  "transactionHash": "0xdebf99eb5a671f0cc47349c4863574fb2e6e042695cc69eec13ce644e2cc8084",
  "args": [],
  "numDeployments": 1,
  "solcInputHash": "d0db9e8c5232e2b527947fba79084623",
  "bytecode": "0x608060405234801561001057600080fd5b5061001961001e565b6100de565b600054610100900460ff161561008a5760405162461bcd60e51b815260206004820152602760248201527f496e697469616c697a61626c653a20636f6e747261637420697320696e697469604482015266616c697a696e6760c81b606482015260840160405180910390fd5b60005460ff90811610156100dc576000805460ff191660ff9081179091556040519081527f7f26b83ff96e1f2b6a682f133852f6798a09c465da95921460cefb38474024989060200160405180910390a15b565b61100f806100ed6000396000f3fe608060405234801561001057600080fd5b50600436106101165760003560e01c8063b6bb744a116100a2578063ddaa26ad11610071578063ddaa26ad14610257578063e2e257da14610260578063f58459da14610273578063ff6fddf61461029e578063ffc84656146102a757600080fd5b8063b6bb744a146101ed578063bf41e16f14610228578063c45a015514610231578063d13f90b41461024457600080fd5b80633b074669116100e95780633b0746691461018a578063639b299b1461019d57806389facb20146101c85780639555a284146101d157806399f91c28146101e457600080fd5b80630bdf53001461011b57806329db1be61461014b5780632e1a7d4d1461015e57806337ba682d14610173575b600080fd5b60345461012e906001600160a01b031681565b6040516001600160a01b0390911681526020015b60405180910390f35b60355461012e906001600160a01b031681565b61017161016c366004610d0e565b6102ba565b005b61017c60375481565b604051908152602001610142565b610171610198366004610d27565b610403565b61017c6101ab366004610d65565b603e60209081526000928352604080842090915290825290205481565b61017c60385481565b61017c6101df366004610d65565b610909565b61017c603c5481565b6102006101fb366004610d65565b61093a565b604080519586526020860194909452928401919091526060830152608082015260a001610142565b61017c603a5481565b60335461012e906001600160a01b031681565b610171610252366004610d8f565b610988565b61017c60365481565b61017161026e366004610df2565b610b28565b61017c610281366004610d65565b603f60209081526000928352604080842090915290825290205481565b61017c60395481565b61017c6102b5366004610d0e565b610bef565b6033546001600160a01b031633146103135760405162461bcd60e51b815260206004820152601760248201527611dd595cdcd1d85b594e8815539055551213d492569151604a1b60448201526064015b60405180910390fd5b60375442116103645760405162461bcd60e51b815260206004820152601f60248201527f477565737347616d653a204e4f545f494e5f57495448445241575f54494d4500604482015260640161030a565b60355460405163a9059cbb60e01b8152336004820152602481018390526001600160a01b039091169063a9059cbb90604401602060405180830381600087803b1580156103b057600080fd5b505af11580156103c4573d6000803e3d6000fd5b505050506040513d601f19601f820116820180604052508101906103e89190610eb0565b5080603c60008282546103fb9190610eef565b909155505050565b603954603b541461046b5760405162461bcd60e51b815260206004820152602c60248201527f477565737347616d653a20706c656173652073657420696e74657276616c207760448201526b195a59da1d1cc8199a5c9cdd60a21b606482015260840161030a565b600081118015610485575069152d02c7e14af68000008111155b6104d15760405162461bcd60e51b815260206004820152601f60248201527f477565737347616d653a20494e56414c49445f544f4b454e5f414d4f554e5400604482015260640161030a565b3360009081526040602081905290205460031161053c5760405162461bcd60e51b815260206004820152602360248201527f477565737347616d653a204558434545445f4d41585f5354414b45445f4e554d6044820152622122a960e91b606482015260840161030a565b603654421015801561055057506037544211155b61059c5760405162461bcd60e51b815260206004820152601e60248201527f477565737347616d653a204e4f545f494e5f5354414b494e475f54494d450000604482015260640161030a565b600182101580156105af57506103e88211155b6105fb5760405162461bcd60e51b815260206004820152601960248201527f477565737347616d653a20494e56414c49445f4e554d42455200000000000000604482015260640161030a565b6035546040516370a0823160e01b815233600482015282916001600160a01b0316906370a082319060240160206040518083038186803b15801561063e57600080fd5b505afa158015610652573d6000803e3d6000fd5b505050506040513d601f19601f820116820180604052508101906106769190610f06565b10156106c45760405162461bcd60e51b815260206004820152601f60248201527f477565737347616d653a20494e53554646494349454e545f42414c414e434500604482015260640161030a565b6035546040516323b872dd60e01b8152336004820152306024820152604481018390526001600160a01b03909116906323b872dd90606401602060405180830381600087803b15801561071657600080fd5b505af115801561072a573d6000803e3d6000fd5b505050506040513d601f19601f8201168201806040525081019061074e9190610eb0565b506000603854603654426107629190610eef565b61076c9190610f1f565b90506000603b828154811061078357610783610f41565b9060005260206000200154836107999190610f57565b905080603a60008282546107ad9190610f76565b9250508190555082603c60008282546107c69190610f76565b9091555050336000818152603d60209081526040808320815160a081018352898152428185019081528184018a815260608301898152608084018b8152855460018181018855968a52888a2095516005909102909501948555925194840194909455516002830155915160038201559051600490910155928252603e81528282208783529052908120805485929061085f908490610f76565b9091555050336000908152603f602090815260408083208784529091528120805483929061088e908490610f76565b9091555050336000818152604060208181528183208054600181018255908452928190209092018790558051928352908201869052810184905260608101839052608081018290527f313542362b7ef4b2100d3c4f16d63ed95430c90ac1e73b4f11a12e8bd1508ee89060a00160405180910390a150505050565b6040602052816000526040600020818154811061092557600080fd5b90600052602060002001600091509150505481565b603d602052816000526040600020818154811061095657600080fd5b600091825260209091206005909102018054600182015460028301546003840154600490940154929550909350919085565b600054610100900460ff16158080156109a85750600054600160ff909116105b806109c25750303b1580156109c2575060005460ff166001145b610a255760405162461bcd60e51b815260206004820152602e60248201527f496e697469616c697a61626c653a20636f6e747261637420697320616c72656160448201526d191e481a5b9a5d1a585b1a5e995960921b606482015260840161030a565b6000805460ff191660011790558015610a48576000805461ff0019166101001790555b610a50610c10565b603380546001600160a01b0319166001600160a01b0388161790556036849055610a7a8284610f57565b610a849085610f76565b60375560388390556039829055603480546001600160a01b0387166001600160a01b03199182168117909255603580549091169091179055604080516020810190915260648152610ad990603b906001610c6e565b508015610b20576000805461ff0019169055604051600181527f7f26b83ff96e1f2b6a682f133852f6798a09c465da95921460cefb38474024989060200160405180910390a15b505050505050565b6033546001600160a01b03163314610b7c5760405162461bcd60e51b815260206004820152601760248201527611dd595cdcd1d85b594e8815539055551213d492569151604a1b604482015260640161030a565b603954815114610bd85760405162461bcd60e51b815260206004820152602160248201527f477565737347616d653a20494e56414c49445f574549474854535f4c454e47546044820152600960fb1b606482015260840161030a565b8051610beb90603b906020840190610cbe565b5050565b603b8181548110610bff57600080fd5b600091825260209091200154905081565b600054610100900460ff16610c375760405162461bcd60e51b815260040161030a90610f8e565b610c3f610c41565b565b600054610100900460ff16610c685760405162461bcd60e51b815260040161030a90610f8e565b60018055565b828054828255906000526020600020908101928215610cae579160200282015b82811115610cae578251829060ff16905591602001919060010190610c8e565b50610cba929150610cf9565b5090565b828054828255906000526020600020908101928215610cae579160200282015b82811115610cae578251825591602001919060010190610cde565b5b80821115610cba5760008155600101610cfa565b600060208284031215610d2057600080fd5b5035919050565b60008060408385031215610d3a57600080fd5b50508035926020909101359150565b80356001600160a01b0381168114610d6057600080fd5b919050565b60008060408385031215610d7857600080fd5b610d8183610d49565b946020939093013593505050565b600080600080600060a08688031215610da757600080fd5b610db086610d49565b9450610dbe60208701610d49565b94979496505050506040830135926060810135926080909101359150565b634e487b7160e01b600052604160045260246000fd5b60006020808385031215610e0557600080fd5b823567ffffffffffffffff80821115610e1d57600080fd5b818501915085601f830112610e3157600080fd5b813581811115610e4357610e43610ddc565b8060051b604051601f19603f83011681018181108582111715610e6857610e68610ddc565b604052918252848201925083810185019188831115610e8657600080fd5b938501935b82851015610ea457843584529385019392850192610e8b565b98975050505050505050565b600060208284031215610ec257600080fd5b81518015158114610ed257600080fd5b9392505050565b634e487b7160e01b600052601160045260246000fd5b600082821015610f0157610f01610ed9565b500390565b600060208284031215610f1857600080fd5b5051919050565b600082610f3c57634e487b7160e01b600052601260045260246000fd5b500490565b634e487b7160e01b600052603260045260246000fd5b6000816000190483118215151615610f7157610f71610ed9565b500290565b60008219821115610f8957610f89610ed9565b500190565b6020808252602b908201527f496e697469616c697a61626c653a20636f6e7472616374206973206e6f74206960408201526a6e697469616c697a696e6760a81b60608201526080019056fea2646970667358221220f7ff8ef52dca3e3c2d640fae9bb0c4425ebdbf71f7eaea6191f42ed7248604f964736f6c63430008090033",
  "devdoc": {
    "kind": "dev",
    "methods": {
      "constructor": {
        "custom:oz-upgrades-unsafe-allow": "constructor"
      }
    },
    "version": 1
  },
  "userdoc": {
    "kind": "user",
    "methods": {},
    "version": 1
  },
  "storageLayout": {
    "storage": [
      {
        "astId": 6,
        "contract": "contracts/GuessGame.sol:GuessGame",
        "label": "_initialized",
        "offset": 0,
        "slot": "0",
        "type": "t_uint8"
      },
      {
        "astId": 9,
        "contract": "contracts/GuessGame.sol:GuessGame",
        "label": "_initializing",
        "offset": 1,
        "slot": "0",
        "type": "t_bool"
      },
      {
        "astId": 182,
        "contract": "contracts/GuessGame.sol:GuessGame",
        "label": "_status",
        "offset": 0,
        "slot": "1",
        "type": "t_uint256"
      },
      {
        "astId": 240,
        "contract": "contracts/GuessGame.sol:GuessGame",
        "label": "__gap",
        "offset": 0,
        "slot": "2",
        "type": "t_array(t_uint256)49_storage"
      },
      {
        "astId": 3375,
        "contract": "contracts/GuessGame.sol:GuessGame",
        "label": "factory",
        "offset": 0,
        "slot": "51",
        "type": "t_contract(IGuessGameFactory)3988"
      },
      {
        "astId": 3388,
        "contract": "contracts/GuessGame.sol:GuessGame",
        "label": "TOKEN_ADDRESS",
        "offset": 0,
        "slot": "52",
        "type": "t_address"
      },
      {
        "astId": 3391,
        "contract": "contracts/GuessGame.sol:GuessGame",
        "label": "UNDERLYING_TOKEN",
        "offset": 0,
        "slot": "53",
        "type": "t_contract(IERC20)1878"
      },
      {
        "astId": 3393,
        "contract": "contracts/GuessGame.sol:GuessGame",
        "label": "START_TIME",
        "offset": 0,
        "slot": "54",
        "type": "t_uint256"
      },
      {
        "astId": 3395,
        "contract": "contracts/GuessGame.sol:GuessGame",
        "label": "END_TIME",
        "offset": 0,
        "slot": "55",
        "type": "t_uint256"
      },
      {
        "astId": 3397,
        "contract": "contracts/GuessGame.sol:GuessGame",
        "label": "INTERVAL",
        "offset": 0,
        "slot": "56",
        "type": "t_uint256"
      },
      {
        "astId": 3399,
        "contract": "contracts/GuessGame.sol:GuessGame",
        "label": "INTERVAL_NUMS",
        "offset": 0,
        "slot": "57",
        "type": "t_uint256"
      },
      {
        "astId": 3401,
        "contract": "contracts/GuessGame.sol:GuessGame",
        "label": "TOTAL_SHARE",
        "offset": 0,
        "slot": "58",
        "type": "t_uint256"
      },
      {
        "astId": 3404,
        "contract": "contracts/GuessGame.sol:GuessGame",
        "label": "INTERVAL_WEIGHTS",
        "offset": 0,
        "slot": "59",
        "type": "t_array(t_uint256)dyn_storage"
      },
      {
        "astId": 3406,
        "contract": "contracts/GuessGame.sol:GuessGame",
        "label": "REWARD_POOL",
        "offset": 0,
        "slot": "60",
        "type": "t_uint256"
      },
      {
        "astId": 3412,
        "contract": "contracts/GuessGame.sol:GuessGame",
        "label": "userOperationHistory",
        "offset": 0,
        "slot": "61",
        "type": "t_mapping(t_address,t_array(t_struct(Operation)3386_storage)dyn_storage)"
      },
      {
        "astId": 3418,
        "contract": "contracts/GuessGame.sol:GuessGame",
        "label": "userStakedAmountPerNumber",
        "offset": 0,
        "slot": "62",
        "type": "t_mapping(t_address,t_mapping(t_uint256,t_uint256))"
      },
      {
        "astId": 3424,
        "contract": "contracts/GuessGame.sol:GuessGame",
        "label": "userStakedSharePerNumber",
        "offset": 0,
        "slot": "63",
        "type": "t_mapping(t_address,t_mapping(t_uint256,t_uint256))"
      },
      {
        "astId": 3429,
        "contract": "contracts/GuessGame.sol:GuessGame",
        "label": "userChosenNumbers",
        "offset": 0,
        "slot": "64",
        "type": "t_mapping(t_address,t_array(t_uint256)dyn_storage)"
      }
    ],
    "types": {
      "t_address": {
        "encoding": "inplace",
        "label": "address",
        "numberOfBytes": "20"
      },
      "t_array(t_struct(Operation)3386_storage)dyn_storage": {
        "base": "t_struct(Operation)3386_storage",
        "encoding": "dynamic_array",
        "label": "struct GuessGame.Operation[]",
        "numberOfBytes": "32"
      },
      "t_array(t_uint256)49_storage": {
        "base": "t_uint256",
        "encoding": "inplace",
        "label": "uint256[49]",
        "numberOfBytes": "1568"
      },
      "t_array(t_uint256)dyn_storage": {
        "base": "t_uint256",
        "encoding": "dynamic_array",
        "label": "uint256[]",
        "numberOfBytes": "32"
      },
      "t_bool": {
        "encoding": "inplace",
        "label": "bool",
        "numberOfBytes": "1"
      },
      "t_contract(IERC20)1878": {
        "encoding": "inplace",
        "label": "contract IERC20",
        "numberOfBytes": "20"
      },
      "t_contract(IGuessGameFactory)3988": {
        "encoding": "inplace",
        "label": "contract IGuessGameFactory",
        "numberOfBytes": "20"
      },
      "t_mapping(t_address,t_array(t_struct(Operation)3386_storage)dyn_storage)": {
        "encoding": "mapping",
        "key": "t_address",
        "label": "mapping(address => struct GuessGame.Operation[])",
        "numberOfBytes": "32",
        "value": "t_array(t_struct(Operation)3386_storage)dyn_storage"
      },
      "t_mapping(t_address,t_array(t_uint256)dyn_storage)": {
        "encoding": "mapping",
        "key": "t_address",
        "label": "mapping(address => uint256[])",
        "numberOfBytes": "32",
        "value": "t_array(t_uint256)dyn_storage"
      },
      "t_mapping(t_address,t_mapping(t_uint256,t_uint256))": {
        "encoding": "mapping",
        "key": "t_address",
        "label": "mapping(address => mapping(uint256 => uint256))",
        "numberOfBytes": "32",
        "value": "t_mapping(t_uint256,t_uint256)"
      },
      "t_mapping(t_uint256,t_uint256)": {
        "encoding": "mapping",
        "key": "t_uint256",
        "label": "mapping(uint256 => uint256)",
        "numberOfBytes": "32",
        "value": "t_uint256"
      },
      "t_struct(Operation)3386_storage": {
        "encoding": "inplace",
        "label": "struct GuessGame.Operation",
        "members": [
          {
            "astId": 3377,
            "contract": "contracts/GuessGame.sol:GuessGame",
            "label": "number",
            "offset": 0,
            "slot": "0",
            "type": "t_uint256"
          },
          {
            "astId": 3379,
            "contract": "contracts/GuessGame.sol:GuessGame",
            "label": "timestamp",
            "offset": 0,
            "slot": "1",
            "type": "t_uint256"
          },
          {
            "astId": 3381,
            "contract": "contracts/GuessGame.sol:GuessGame",
            "label": "amount",
            "offset": 0,
            "slot": "2",
            "type": "t_uint256"
          },
          {
            "astId": 3383,
            "contract": "contracts/GuessGame.sol:GuessGame",
            "label": "shares",
            "offset": 0,
            "slot": "3",
            "type": "t_uint256"
          },
          {
            "astId": 3385,
            "contract": "contracts/GuessGame.sol:GuessGame",
            "label": "day",
            "offset": 0,
            "slot": "4",
            "type": "t_uint256"
          }
        ],
        "numberOfBytes": "160"
      },
      "t_uint256": {
        "encoding": "inplace",
        "label": "uint256",
        "numberOfBytes": "32"
      },
      "t_uint8": {
        "encoding": "inplace",
        "label": "uint8",
        "numberOfBytes": "1"
      }
    }
  }
}