{
  "address": "0xb6B929b3c46069b45F8d1315d22D0C22a1C493A5",
  "abi": [
    {
      "inputs": [],
      "stateMutability": "nonpayable",
      "type": "constructor"
    },
    {
      "anonymous": false,
      "inputs": [
        {
          "indexed": false,
          "internalType": "address",
          "name": "staker",
          "type": "address"
        },
        {
          "indexed": false,
          "internalType": "uint256",
          "name": "chosenNumber",
          "type": "uint256"
        },
        {
          "indexed": false,
          "internalType": "uint256",
          "name": "amount",
          "type": "uint256"
        },
        {
          "indexed": false,
          "internalType": "uint256",
          "name": "day",
          "type": "uint256"
        },
        {
          "indexed": false,
          "internalType": "uint256",
          "name": "shares",
          "type": "uint256"
        }
      ],
      "name": "ChooseAndStake",
      "type": "event"
    },
    {
      "anonymous": false,
      "inputs": [
        {
          "indexed": false,
          "internalType": "uint8",
          "name": "version",
          "type": "uint8"
        }
      ],
      "name": "Initialized",
      "type": "event"
    },
    {
      "inputs": [],
      "name": "END_TIME",
      "outputs": [
        {
          "internalType": "uint256",
          "name": "",
          "type": "uint256"
        }
      ],
      "stateMutability": "view",
      "type": "function"
    },
    {
      "inputs": [],
      "name": "INTERVAL",
      "outputs": [
        {
          "internalType": "uint256",
          "name": "",
          "type": "uint256"
        }
      ],
      "stateMutability": "view",
      "type": "function"
    },
    {
      "inputs": [],
      "name": "INTERVAL_NUMS",
      "outputs": [
        {
          "internalType": "uint256",
          "name": "",
          "type": "uint256"
        }
      ],
      "stateMutability": "view",
      "type": "function"
    },
    {
      "inputs": [
        {
          "internalType": "uint256",
          "name": "",
          "type": "uint256"
        }
      ],
      "name": "INTERVAL_WEIGHTS",
      "outputs": [
        {
          "internalType": "uint256",
          "name": "",
          "type": "uint256"
        }
      ],
      "stateMutability": "view",
      "type": "function"
    },
    {
      "inputs": [],
      "name": "REWARD_POOL",
      "outputs": [
        {
          "internalType": "uint256",
          "name": "",
          "type": "uint256"
        }
      ],
      "stateMutability": "view",
      "type": "function"
    },
    {
      "inputs": [],
      "name": "START_TIME",
      "outputs": [
        {
          "internalType": "uint256",
          "name": "",
          "type": "uint256"
        }
      ],
      "stateMutability": "view",
      "type": "function"
    },
    {
      "inputs": [],
      "name": "TOKEN_ADDRESS",
      "outputs": [
        {
          "internalType": "address",
          "name": "",
          "type": "address"
        }
      ],
      "stateMutability": "view",
      "type": "function"
    },
    {
      "inputs": [],
      "name": "TOTAL_SHARE",
      "outputs": [
        {
          "internalType": "uint256",
          "name": "",
          "type": "uint256"
        }
      ],
      "stateMutability": "view",
      "type": "function"
    },
    {
      "inputs": [],
      "name": "UNDERLYING_TOKEN",
      "outputs": [
        {
          "internalType": "contract IERC20",
          "name": "",
          "type": "address"
        }
      ],
      "stateMutability": "view",
      "type": "function"
    },
    {
      "inputs": [
        {
          "internalType": "uint256",
          "name": "_number",
          "type": "uint256"
        },
        {
          "internalType": "uint256",
          "name": "_tokenAmount",
          "type": "uint256"
        }
      ],
      "name": "chooseNumberAndStake",
      "outputs": [],
      "stateMutability": "nonpayable",
      "type": "function"
    },
    {
      "inputs": [],
      "name": "factory",
      "outputs": [
        {
          "internalType": "contract IGuessGameFactory",
          "name": "",
          "type": "address"
        }
      ],
      "stateMutability": "view",
      "type": "function"
    },
    {
      "inputs": [
        {
          "internalType": "address",
          "name": "_user",
          "type": "address"
        }
      ],
      "name": "getUserChosenNumber",
      "outputs": [
        {
          "internalType": "uint256[]",
          "name": "",
          "type": "uint256[]"
        }
      ],
      "stateMutability": "view",
      "type": "function"
    },
    {
      "inputs": [
        {
          "internalType": "address",
          "name": "_user",
          "type": "address"
        }
      ],
      "name": "getUserOperationHistories",
      "outputs": [
        {
          "components": [
            {
              "internalType": "uint256",
              "name": "number",
              "type": "uint256"
            },
            {
              "internalType": "uint256",
              "name": "timestamp",
              "type": "uint256"
            },
            {
              "internalType": "uint256",
              "name": "amount",
              "type": "uint256"
            },
            {
              "internalType": "uint256",
              "name": "shares",
              "type": "uint256"
            },
            {
              "internalType": "uint256",
              "name": "day",
              "type": "uint256"
            }
          ],
          "internalType": "struct GuessGame.Operation[]",
          "name": "",
          "type": "tuple[]"
        }
      ],
      "stateMutability": "view",
      "type": "function"
    },
    {
      "inputs": [
        {
          "internalType": "address",
          "name": "_factory",
          "type": "address"
        },
        {
          "internalType": "address",
          "name": "_tokenAddress",
          "type": "address"
        },
        {
          "internalType": "uint256",
          "name": "_startTime",
          "type": "uint256"
        },
        {
          "internalType": "uint256",
          "name": "_interval",
          "type": "uint256"
        },
        {
          "internalType": "uint256",
          "name": "_interval_nums",
          "type": "uint256"
        }
      ],
      "name": "initialize",
      "outputs": [],
      "stateMutability": "nonpayable",
      "type": "function"
    },
    {
      "inputs": [
        {
          "internalType": "uint256[]",
          "name": "weights",
          "type": "uint256[]"
        }
      ],
      "name": "setIntervalWeight",
      "outputs": [],
      "stateMutability": "nonpayable",
      "type": "function"
    },
    {
      "inputs": [
        {
          "internalType": "address",
          "name": "",
          "type": "address"
        },
        {
          "internalType": "uint256",
          "name": "",
          "type": "uint256"
        }
      ],
      "name": "userChosenNumbers",
      "outputs": [
        {
          "internalType": "uint256",
          "name": "",
          "type": "uint256"
        }
      ],
      "stateMutability": "view",
      "type": "function"
    },
    {
      "inputs": [
        {
          "internalType": "address",
          "name": "",
          "type": "address"
        },
        {
          "internalType": "uint256",
          "name": "",
          "type": "uint256"
        }
      ],
      "name": "userOperationHistory",
      "outputs": [
        {
          "internalType": "uint256",
          "name": "number",
          "type": "uint256"
        },
        {
          "internalType": "uint256",
          "name": "timestamp",
          "type": "uint256"
        },
        {
          "internalType": "uint256",
          "name": "amount",
          "type": "uint256"
        },
        {
          "internalType": "uint256",
          "name": "shares",
          "type": "uint256"
        },
        {
          "internalType": "uint256",
          "name": "day",
          "type": "uint256"
        }
      ],
      "stateMutability": "view",
      "type": "function"
    },
    {
      "inputs": [
        {
          "internalType": "address",
          "name": "",
          "type": "address"
        },
        {
          "internalType": "uint256",
          "name": "",
          "type": "uint256"
        }
      ],
      "name": "userStakedAmountPerNumber",
      "outputs": [
        {
          "internalType": "uint256",
          "name": "",
          "type": "uint256"
        }
      ],
      "stateMutability": "view",
      "type": "function"
    },
    {
      "inputs": [
        {
          "internalType": "address",
          "name": "",
          "type": "address"
        },
        {
          "internalType": "uint256",
          "name": "",
          "type": "uint256"
        }
      ],
      "name": "userStakedSharePerNumber",
      "outputs": [
        {
          "internalType": "uint256",
          "name": "",
          "type": "uint256"
        }
      ],
      "stateMutability": "view",
      "type": "function"
    },
    {
      "inputs": [
        {
          "internalType": "uint256",
          "name": "_number",
          "type": "uint256"
        }
      ],
      "name": "withdraw",
      "outputs": [],
      "stateMutability": "nonpayable",
      "type": "function"
    }
  ],
  "transactionHash": "0x9caf5b68c42b8e75faa495fad15043521cae9919b5274822c9008a1cc7cb6daa",
  "args": [],
  "numDeployments": 2,
  "solcInputHash": "e7e932e7c529e8d31f0ba33beb4cd5af",
  "bytecode": "0x608060405234801561001057600080fd5b5061001961001e565b6100de565b600054610100900460ff161561008a5760405162461bcd60e51b815260206004820152602760248201527f496e697469616c697a61626c653a20636f6e747261637420697320696e697469604482015266616c697a696e6760c81b606482015260840160405180910390fd5b60005460ff90811610156100dc576000805460ff191660ff9081179091556040519081527f7f26b83ff96e1f2b6a682f133852f6798a09c465da95921460cefb38474024989060200160405180910390a15b565b611240806100ed6000396000f3fe608060405234801561001057600080fd5b506004361061012c5760003560e01c806399f91c28116100ad578063ddaa26ad11610071578063ddaa26ad146102ad578063e2e257da146102b6578063f58459da146102c9578063ff6fddf6146102f4578063ffc84656146102fd57600080fd5b806399f91c281461023a578063b6bb744a14610243578063bf41e16f1461027e578063c45a015514610287578063d13f90b41461029a57600080fd5b80633da7b7b9116100f45780633da7b7b9146101b3578063639b299b146101d357806379caeba2146101fe57806389facb201461021e5780639555a2841461022757600080fd5b80630bdf53001461013157806329db1be6146101615780632e1a7d4d1461017457806337ba682d146101895780633b074669146101a0575b600080fd5b603454610144906001600160a01b031681565b6040516001600160a01b0390911681526020015b60405180910390f35b603554610144906001600160a01b031681565b610187610182366004610e72565b610310565b005b61019260375481565b604051908152602001610158565b6101876101ae366004610e8b565b610459565b6101c66101c1366004610ec9565b61095f565b6040516101589190610eeb565b6101926101e1366004610f59565b603e60209081526000928352604080842090915290825290205481565b61021161020c366004610ec9565b610a04565b6040516101589190610f83565b61019260385481565b610192610235366004610f59565b610a6d565b610192603c5481565b610256610251366004610f59565b610a9e565b604080519586526020860194909452928401919091526060830152608082015260a001610158565b610192603a5481565b603354610144906001600160a01b031681565b6101876102a8366004610fc7565b610aec565b61019260365481565b6101876102c436600461102a565b610c8c565b6101926102d7366004610f59565b603f60209081526000928352604080842090915290825290205481565b61019260395481565b61019261030b366004610e72565b610d53565b6033546001600160a01b031633146103695760405162461bcd60e51b815260206004820152601760248201527611dd595cdcd1d85b594e8815539055551213d492569151604a1b60448201526064015b60405180910390fd5b60375442116103ba5760405162461bcd60e51b815260206004820152601f60248201527f477565737347616d653a204e4f545f494e5f57495448445241575f54494d45006044820152606401610360565b60355460405163a9059cbb60e01b8152336004820152602481018390526001600160a01b039091169063a9059cbb90604401602060405180830381600087803b15801561040657600080fd5b505af115801561041a573d6000803e3d6000fd5b505050506040513d601f19601f8201168201806040525081019061043e91906110e8565b5080603c60008282546104519190611120565b909155505050565b603954603b54146104c15760405162461bcd60e51b815260206004820152602c60248201527f477565737347616d653a20706c656173652073657420696e74657276616c207760448201526b195a59da1d1cc8199a5c9cdd60a21b6064820152608401610360565b6000811180156104db575069152d02c7e14af68000008111155b6105275760405162461bcd60e51b815260206004820152601f60248201527f477565737347616d653a20494e56414c49445f544f4b454e5f414d4f554e54006044820152606401610360565b336000908152604060208190529020546003116105925760405162461bcd60e51b815260206004820152602360248201527f477565737347616d653a204558434545445f4d41585f5354414b45445f4e554d6044820152622122a960e91b6064820152608401610360565b60365442101580156105a657506037544211155b6105f25760405162461bcd60e51b815260206004820152601e60248201527f477565737347616d653a204e4f545f494e5f5354414b494e475f54494d4500006044820152606401610360565b6001821015801561060557506103e88211155b6106515760405162461bcd60e51b815260206004820152601960248201527f477565737347616d653a20494e56414c49445f4e554d424552000000000000006044820152606401610360565b6035546040516370a0823160e01b815233600482015282916001600160a01b0316906370a082319060240160206040518083038186803b15801561069457600080fd5b505afa1580156106a8573d6000803e3d6000fd5b505050506040513d601f19601f820116820180604052508101906106cc9190611137565b101561071a5760405162461bcd60e51b815260206004820152601f60248201527f477565737347616d653a20494e53554646494349454e545f42414c414e4345006044820152606401610360565b6035546040516323b872dd60e01b8152336004820152306024820152604481018390526001600160a01b03909116906323b872dd90606401602060405180830381600087803b15801561076c57600080fd5b505af1158015610780573d6000803e3d6000fd5b505050506040513d601f19601f820116820180604052508101906107a491906110e8565b506000603854603654426107b89190611120565b6107c29190611150565b90506000603b82815481106107d9576107d9611172565b9060005260206000200154836107ef9190611188565b905080603a600082825461080391906111a7565b9250508190555082603c600082825461081c91906111a7565b9091555050336000818152603d60209081526040808320815160a081018352898152428185019081528184018a815260608301898152608084018b8152855460018181018855968a52888a2095516005909102909501948555925194840194909455516002830155915160038201559051600490910155928252603e8152828220878352905290812080548592906108b59084906111a7565b9091555050336000908152603f60209081526040808320878452909152812080548392906108e49084906111a7565b9091555050336000818152604060208181528183208054600181018255908452928190209092018790558051928352908201869052810184905260608101839052608081018290527f313542362b7ef4b2100d3c4f16d63ed95430c90ac1e73b4f11a12e8bd1508ee89060a00160405180910390a150505050565b6001600160a01b0381166000908152603d60209081526040808320805482518185028101850190935280835260609493849084015b828210156109f857838290600052602060002090600502016040518060a00160405290816000820154815260200160018201548152602001600282015481526020016003820154815260200160048201548152505081526020019060010190610994565b50929695505050505050565b6001600160a01b038116600090815260406020818152918190208054825181850281018501909352808352606093830182828015610a6157602002820191906000526020600020905b815481526020019060010190808311610a4d575b50505050509050919050565b60406020528160005260406000208181548110610a8957600080fd5b90600052602060002001600091509150505481565b603d6020528160005260406000208181548110610aba57600080fd5b600091825260209091206005909102018054600182015460028301546003840154600490940154929550909350919085565b600054610100900460ff1615808015610b0c5750600054600160ff909116105b80610b265750303b158015610b26575060005460ff166001145b610b895760405162461bcd60e51b815260206004820152602e60248201527f496e697469616c697a61626c653a20636f6e747261637420697320616c72656160448201526d191e481a5b9a5d1a585b1a5e995960921b6064820152608401610360565b6000805460ff191660011790558015610bac576000805461ff0019166101001790555b610bb4610d74565b603380546001600160a01b0319166001600160a01b0388161790556036849055610bde8284611188565b610be890856111a7565b60375560388390556039829055603480546001600160a01b0387166001600160a01b03199182168117909255603580549091169091179055604080516020810190915260648152610c3d90603b906001610dd2565b508015610c84576000805461ff0019169055604051600181527f7f26b83ff96e1f2b6a682f133852f6798a09c465da95921460cefb38474024989060200160405180910390a15b505050505050565b6033546001600160a01b03163314610ce05760405162461bcd60e51b815260206004820152601760248201527611dd595cdcd1d85b594e8815539055551213d492569151604a1b6044820152606401610360565b603954815114610d3c5760405162461bcd60e51b815260206004820152602160248201527f477565737347616d653a20494e56414c49445f574549474854535f4c454e47546044820152600960fb1b6064820152608401610360565b8051610d4f90603b906020840190610e22565b5050565b603b8181548110610d6357600080fd5b600091825260209091200154905081565b600054610100900460ff16610d9b5760405162461bcd60e51b8152600401610360906111bf565b610da3610da5565b565b600054610100900460ff16610dcc5760405162461bcd60e51b8152600401610360906111bf565b60018055565b828054828255906000526020600020908101928215610e12579160200282015b82811115610e12578251829060ff16905591602001919060010190610df2565b50610e1e929150610e5d565b5090565b828054828255906000526020600020908101928215610e12579160200282015b82811115610e12578251825591602001919060010190610e42565b5b80821115610e1e5760008155600101610e5e565b600060208284031215610e8457600080fd5b5035919050565b60008060408385031215610e9e57600080fd5b50508035926020909101359150565b80356001600160a01b0381168114610ec457600080fd5b919050565b600060208284031215610edb57600080fd5b610ee482610ead565b9392505050565b602080825282518282018190526000919060409081850190868401855b82811015610f4c5781518051855286810151878601528581015186860152606080820151908601526080908101519085015260a09093019290850190600101610f08565b5091979650505050505050565b60008060408385031215610f6c57600080fd5b610f7583610ead565b946020939093013593505050565b6020808252825182820181905260009190848201906040850190845b81811015610fbb57835183529284019291840191600101610f9f565b50909695505050505050565b600080600080600060a08688031215610fdf57600080fd5b610fe886610ead565b9450610ff660208701610ead565b94979496505050506040830135926060810135926080909101359150565b634e487b7160e01b600052604160045260246000fd5b6000602080838503121561103d57600080fd5b823567ffffffffffffffff8082111561105557600080fd5b818501915085601f83011261106957600080fd5b81358181111561107b5761107b611014565b8060051b604051601f19603f830116810181811085821117156110a0576110a0611014565b6040529182528482019250838101850191888311156110be57600080fd5b938501935b828510156110dc578435845293850193928501926110c3565b98975050505050505050565b6000602082840312156110fa57600080fd5b81518015158114610ee457600080fd5b634e487b7160e01b600052601160045260246000fd5b6000828210156111325761113261110a565b500390565b60006020828403121561114957600080fd5b5051919050565b60008261116d57634e487b7160e01b600052601260045260246000fd5b500490565b634e487b7160e01b600052603260045260246000fd5b60008160001904831182151516156111a2576111a261110a565b500290565b600082198211156111ba576111ba61110a565b500190565b6020808252602b908201527f496e697469616c697a61626c653a20636f6e7472616374206973206e6f74206960408201526a6e697469616c697a696e6760a81b60608201526080019056fea2646970667358221220cb33e334b517872f4e917db8720c108163d7896b12fbe9ad65a3a8beff34e78164736f6c63430008090033",
  "devdoc": {
    "kind": "dev",
    "methods": {
      "constructor": {
        "custom:oz-upgrades-unsafe-allow": "constructor"
      }
    },
    "version": 1
  },
  "userdoc": {
    "kind": "user",
    "methods": {},
    "version": 1
  },
  "storageLayout": {
    "storage": [
      {
        "astId": 6,
        "contract": "contracts/GuessGame.sol:GuessGame",
        "label": "_initialized",
        "offset": 0,
        "slot": "0",
        "type": "t_uint8"
      },
      {
        "astId": 9,
        "contract": "contracts/GuessGame.sol:GuessGame",
        "label": "_initializing",
        "offset": 1,
        "slot": "0",
        "type": "t_bool"
      },
      {
        "astId": 182,
        "contract": "contracts/GuessGame.sol:GuessGame",
        "label": "_status",
        "offset": 0,
        "slot": "1",
        "type": "t_uint256"
      },
      {
        "astId": 240,
        "contract": "contracts/GuessGame.sol:GuessGame",
        "label": "__gap",
        "offset": 0,
        "slot": "2",
        "type": "t_array(t_uint256)49_storage"
      },
      {
        "astId": 3375,
        "contract": "contracts/GuessGame.sol:GuessGame",
        "label": "factory",
        "offset": 0,
        "slot": "51",
        "type": "t_contract(IGuessGameFactory)4022"
      },
      {
        "astId": 3388,
        "contract": "contracts/GuessGame.sol:GuessGame",
        "label": "TOKEN_ADDRESS",
        "offset": 0,
        "slot": "52",
        "type": "t_address"
      },
      {
        "astId": 3391,
        "contract": "contracts/GuessGame.sol:GuessGame",
        "label": "UNDERLYING_TOKEN",
        "offset": 0,
        "slot": "53",
        "type": "t_contract(IERC20)1878"
      },
      {
        "astId": 3393,
        "contract": "contracts/GuessGame.sol:GuessGame",
        "label": "START_TIME",
        "offset": 0,
        "slot": "54",
        "type": "t_uint256"
      },
      {
        "astId": 3395,
        "contract": "contracts/GuessGame.sol:GuessGame",
        "label": "END_TIME",
        "offset": 0,
        "slot": "55",
        "type": "t_uint256"
      },
      {
        "astId": 3397,
        "contract": "contracts/GuessGame.sol:GuessGame",
        "label": "INTERVAL",
        "offset": 0,
        "slot": "56",
        "type": "t_uint256"
      },
      {
        "astId": 3399,
        "contract": "contracts/GuessGame.sol:GuessGame",
        "label": "INTERVAL_NUMS",
        "offset": 0,
        "slot": "57",
        "type": "t_uint256"
      },
      {
        "astId": 3401,
        "contract": "contracts/GuessGame.sol:GuessGame",
        "label": "TOTAL_SHARE",
        "offset": 0,
        "slot": "58",
        "type": "t_uint256"
      },
      {
        "astId": 3404,
        "contract": "contracts/GuessGame.sol:GuessGame",
        "label": "INTERVAL_WEIGHTS",
        "offset": 0,
        "slot": "59",
        "type": "t_array(t_uint256)dyn_storage"
      },
      {
        "astId": 3406,
        "contract": "contracts/GuessGame.sol:GuessGame",
        "label": "REWARD_POOL",
        "offset": 0,
        "slot": "60",
        "type": "t_uint256"
      },
      {
        "astId": 3412,
        "contract": "contracts/GuessGame.sol:GuessGame",
        "label": "userOperationHistory",
        "offset": 0,
        "slot": "61",
        "type": "t_mapping(t_address,t_array(t_struct(Operation)3386_storage)dyn_storage)"
      },
      {
        "astId": 3418,
        "contract": "contracts/GuessGame.sol:GuessGame",
        "label": "userStakedAmountPerNumber",
        "offset": 0,
        "slot": "62",
        "type": "t_mapping(t_address,t_mapping(t_uint256,t_uint256))"
      },
      {
        "astId": 3424,
        "contract": "contracts/GuessGame.sol:GuessGame",
        "label": "userStakedSharePerNumber",
        "offset": 0,
        "slot": "63",
        "type": "t_mapping(t_address,t_mapping(t_uint256,t_uint256))"
      },
      {
        "astId": 3429,
        "contract": "contracts/GuessGame.sol:GuessGame",
        "label": "userChosenNumbers",
        "offset": 0,
        "slot": "64",
        "type": "t_mapping(t_address,t_array(t_uint256)dyn_storage)"
      }
    ],
    "types": {
      "t_address": {
        "encoding": "inplace",
        "label": "address",
        "numberOfBytes": "20"
      },
      "t_array(t_struct(Operation)3386_storage)dyn_storage": {
        "base": "t_struct(Operation)3386_storage",
        "encoding": "dynamic_array",
        "label": "struct GuessGame.Operation[]",
        "numberOfBytes": "32"
      },
      "t_array(t_uint256)49_storage": {
        "base": "t_uint256",
        "encoding": "inplace",
        "label": "uint256[49]",
        "numberOfBytes": "1568"
      },
      "t_array(t_uint256)dyn_storage": {
        "base": "t_uint256",
        "encoding": "dynamic_array",
        "label": "uint256[]",
        "numberOfBytes": "32"
      },
      "t_bool": {
        "encoding": "inplace",
        "label": "bool",
        "numberOfBytes": "1"
      },
      "t_contract(IERC20)1878": {
        "encoding": "inplace",
        "label": "contract IERC20",
        "numberOfBytes": "20"
      },
      "t_contract(IGuessGameFactory)4022": {
        "encoding": "inplace",
        "label": "contract IGuessGameFactory",
        "numberOfBytes": "20"
      },
      "t_mapping(t_address,t_array(t_struct(Operation)3386_storage)dyn_storage)": {
        "encoding": "mapping",
        "key": "t_address",
        "label": "mapping(address => struct GuessGame.Operation[])",
        "numberOfBytes": "32",
        "value": "t_array(t_struct(Operation)3386_storage)dyn_storage"
      },
      "t_mapping(t_address,t_array(t_uint256)dyn_storage)": {
        "encoding": "mapping",
        "key": "t_address",
        "label": "mapping(address => uint256[])",
        "numberOfBytes": "32",
        "value": "t_array(t_uint256)dyn_storage"
      },
      "t_mapping(t_address,t_mapping(t_uint256,t_uint256))": {
        "encoding": "mapping",
        "key": "t_address",
        "label": "mapping(address => mapping(uint256 => uint256))",
        "numberOfBytes": "32",
        "value": "t_mapping(t_uint256,t_uint256)"
      },
      "t_mapping(t_uint256,t_uint256)": {
        "encoding": "mapping",
        "key": "t_uint256",
        "label": "mapping(uint256 => uint256)",
        "numberOfBytes": "32",
        "value": "t_uint256"
      },
      "t_struct(Operation)3386_storage": {
        "encoding": "inplace",
        "label": "struct GuessGame.Operation",
        "members": [
          {
            "astId": 3377,
            "contract": "contracts/GuessGame.sol:GuessGame",
            "label": "number",
            "offset": 0,
            "slot": "0",
            "type": "t_uint256"
          },
          {
            "astId": 3379,
            "contract": "contracts/GuessGame.sol:GuessGame",
            "label": "timestamp",
            "offset": 0,
            "slot": "1",
            "type": "t_uint256"
          },
          {
            "astId": 3381,
            "contract": "contracts/GuessGame.sol:GuessGame",
            "label": "amount",
            "offset": 0,
            "slot": "2",
            "type": "t_uint256"
          },
          {
            "astId": 3383,
            "contract": "contracts/GuessGame.sol:GuessGame",
            "label": "shares",
            "offset": 0,
            "slot": "3",
            "type": "t_uint256"
          },
          {
            "astId": 3385,
            "contract": "contracts/GuessGame.sol:GuessGame",
            "label": "day",
            "offset": 0,
            "slot": "4",
            "type": "t_uint256"
          }
        ],
        "numberOfBytes": "160"
      },
      "t_uint256": {
        "encoding": "inplace",
        "label": "uint256",
        "numberOfBytes": "32"
      },
      "t_uint8": {
        "encoding": "inplace",
        "label": "uint8",
        "numberOfBytes": "1"
      }
    }
  }
}