{
  "address": "0xCbACD159e8aBDfdb50BD03f7cd752891a44D1d58",
  "abi": [
    {
      "inputs": [],
      "stateMutability": "nonpayable",
      "type": "constructor"
    },
    {
      "anonymous": false,
      "inputs": [
        {
          "indexed": false,
          "internalType": "address",
          "name": "staker",
          "type": "address"
        },
        {
          "indexed": false,
          "internalType": "uint256",
          "name": "chosenNumber",
          "type": "uint256"
        },
        {
          "indexed": false,
          "internalType": "uint256",
          "name": "amount",
          "type": "uint256"
        },
        {
          "indexed": false,
          "internalType": "uint256",
          "name": "day",
          "type": "uint256"
        },
        {
          "indexed": false,
          "internalType": "uint256",
          "name": "shares",
          "type": "uint256"
        }
      ],
      "name": "ChooseAndStake",
      "type": "event"
    },
    {
      "anonymous": false,
      "inputs": [
        {
          "indexed": false,
          "internalType": "uint256",
          "name": "finalNumber",
          "type": "uint256"
        },
        {
          "indexed": false,
          "internalType": "uint256",
          "name": "averageNumber",
          "type": "uint256"
        },
        {
          "indexed": false,
          "internalType": "uint256",
          "name": "random",
          "type": "uint256"
        }
      ],
      "name": "FinalNumberSet",
      "type": "event"
    },
    {
      "anonymous": false,
      "inputs": [
        {
          "indexed": false,
          "internalType": "uint8",
          "name": "version",
          "type": "uint8"
        }
      ],
      "name": "Initialized",
      "type": "event"
    },
    {
      "inputs": [],
      "name": "AVERAGE_NUMBER",
      "outputs": [
        {
          "internalType": "uint256",
          "name": "",
          "type": "uint256"
        }
      ],
      "stateMutability": "view",
      "type": "function"
    },
    {
      "inputs": [],
      "name": "END_TIME",
      "outputs": [
        {
          "internalType": "uint256",
          "name": "",
          "type": "uint256"
        }
      ],
      "stateMutability": "view",
      "type": "function"
    },
    {
      "inputs": [],
      "name": "FINAL_NUMBER",
      "outputs": [
        {
          "internalType": "uint256",
          "name": "",
          "type": "uint256"
        }
      ],
      "stateMutability": "view",
      "type": "function"
    },
    {
      "inputs": [],
      "name": "INTERVAL",
      "outputs": [
        {
          "internalType": "uint256",
          "name": "",
          "type": "uint256"
        }
      ],
      "stateMutability": "view",
      "type": "function"
    },
    {
      "inputs": [],
      "name": "INTERVAL_NUMS",
      "outputs": [
        {
          "internalType": "uint256",
          "name": "",
          "type": "uint256"
        }
      ],
      "stateMutability": "view",
      "type": "function"
    },
    {
      "inputs": [
        {
          "internalType": "uint256",
          "name": "",
          "type": "uint256"
        }
      ],
      "name": "INTERVAL_WEIGHTS",
      "outputs": [
        {
          "internalType": "uint256",
          "name": "",
          "type": "uint256"
        }
      ],
      "stateMutability": "view",
      "type": "function"
    },
    {
      "inputs": [],
      "name": "REWARD_POOL",
      "outputs": [
        {
          "internalType": "uint256",
          "name": "",
          "type": "uint256"
        }
      ],
      "stateMutability": "view",
      "type": "function"
    },
    {
      "inputs": [],
      "name": "START_TIME",
      "outputs": [
        {
          "internalType": "uint256",
          "name": "",
          "type": "uint256"
        }
      ],
      "stateMutability": "view",
      "type": "function"
    },
    {
      "inputs": [],
      "name": "TOKEN_ADDRESS",
      "outputs": [
        {
          "internalType": "address",
          "name": "",
          "type": "address"
        }
      ],
      "stateMutability": "view",
      "type": "function"
    },
    {
      "inputs": [],
      "name": "TOTAL_SHARE",
      "outputs": [
        {
          "internalType": "uint256",
          "name": "",
          "type": "uint256"
        }
      ],
      "stateMutability": "view",
      "type": "function"
    },
    {
      "inputs": [],
      "name": "UNDERLYING_TOKEN",
      "outputs": [
        {
          "internalType": "contract IERC20",
          "name": "",
          "type": "address"
        }
      ],
      "stateMutability": "view",
      "type": "function"
    },
    {
      "inputs": [
        {
          "internalType": "uint256",
          "name": "_number",
          "type": "uint256"
        },
        {
          "internalType": "uint256",
          "name": "_tokenAmount",
          "type": "uint256"
        }
      ],
      "name": "chooseNumberAndStake",
      "outputs": [],
      "stateMutability": "nonpayable",
      "type": "function"
    },
    {
      "inputs": [],
      "name": "claimReward",
      "outputs": [],
      "stateMutability": "nonpayable",
      "type": "function"
    },
    {
      "inputs": [],
      "name": "factory",
      "outputs": [
        {
          "internalType": "contract IGuessGameFactory",
          "name": "",
          "type": "address"
        }
      ],
      "stateMutability": "view",
      "type": "function"
    },
    {
      "inputs": [],
      "name": "generateRandomNumber",
      "outputs": [
        {
          "internalType": "uint256",
          "name": "",
          "type": "uint256"
        }
      ],
      "stateMutability": "view",
      "type": "function"
    },
    {
      "inputs": [],
      "name": "getAllInfos",
      "outputs": [
        {
          "components": [
            {
              "internalType": "uint256",
              "name": "totalBetCount",
              "type": "uint256"
            },
            {
              "internalType": "uint256",
              "name": "totalShare",
              "type": "uint256"
            },
            {
              "internalType": "uint256",
              "name": "rewardPool",
              "type": "uint256"
            },
            {
              "internalType": "uint256[]",
              "name": "stakedNumbers",
              "type": "uint256[]"
            },
            {
              "internalType": "address[]",
              "name": "uniqAddresses",
              "type": "address[]"
            },
            {
              "internalType": "uint256",
              "name": "userRewardAmount",
              "type": "uint256"
            },
            {
              "components": [
                {
                  "internalType": "uint256",
                  "name": "number",
                  "type": "uint256"
                },
                {
                  "internalType": "uint256",
                  "name": "timestamp",
                  "type": "uint256"
                },
                {
                  "internalType": "uint256",
                  "name": "amount",
                  "type": "uint256"
                },
                {
                  "internalType": "uint256",
                  "name": "shares",
                  "type": "uint256"
                },
                {
                  "internalType": "uint256",
                  "name": "day",
                  "type": "uint256"
                },
                {
                  "internalType": "uint256",
                  "name": "weight",
                  "type": "uint256"
                }
              ],
              "internalType": "struct GuessGame.Operation[]",
              "name": "userOperationHistory",
              "type": "tuple[]"
            },
            {
              "internalType": "uint256[]",
              "name": "userChosenNumbers",
              "type": "uint256[]"
            },
            {
              "internalType": "uint256",
              "name": "AVERAGE_NUMBER",
              "type": "uint256"
            },
            {
              "internalType": "uint256",
              "name": "FINAL_NUMBER",
              "type": "uint256"
            }
          ],
          "internalType": "struct GuessGame.AllInfo",
          "name": "",
          "type": "tuple"
        }
      ],
      "stateMutability": "view",
      "type": "function"
    },
    {
      "inputs": [],
      "name": "getAverageNumber",
      "outputs": [
        {
          "internalType": "uint256",
          "name": "",
          "type": "uint256"
        }
      ],
      "stateMutability": "view",
      "type": "function"
    },
    {
      "inputs": [],
      "name": "getStakedNumberInfos",
      "outputs": [
        {
          "components": [
            {
              "internalType": "uint256",
              "name": "number",
              "type": "uint256"
            },
            {
              "internalType": "uint256",
              "name": "totalStakedShare",
              "type": "uint256"
            },
            {
              "internalType": "address[]",
              "name": "stakers",
              "type": "address[]"
            },
            {
              "components": [
                {
                  "internalType": "uint256",
                  "name": "number",
                  "type": "uint256"
                },
                {
                  "internalType": "address",
                  "name": "staker",
                  "type": "address"
                },
                {
                  "internalType": "uint256",
                  "name": "share",
                  "type": "uint256"
                }
              ],
              "internalType": "struct GuessGame.NumberUserShareInfo[]",
              "name": "stakerShareInfos",
              "type": "tuple[]"
            }
          ],
          "internalType": "struct GuessGame.StakedNumberInfo[]",
          "name": "",
          "type": "tuple[]"
        }
      ],
      "stateMutability": "view",
      "type": "function"
    },
    {
      "inputs": [
        {
          "internalType": "address",
          "name": "_user",
          "type": "address"
        }
      ],
      "name": "getUserChosenNumber",
      "outputs": [
        {
          "internalType": "uint256[]",
          "name": "",
          "type": "uint256[]"
        }
      ],
      "stateMutability": "view",
      "type": "function"
    },
    {
      "inputs": [
        {
          "internalType": "address",
          "name": "_user",
          "type": "address"
        }
      ],
      "name": "getUserOperationHistories",
      "outputs": [
        {
          "components": [
            {
              "internalType": "uint256",
              "name": "number",
              "type": "uint256"
            },
            {
              "internalType": "uint256",
              "name": "timestamp",
              "type": "uint256"
            },
            {
              "internalType": "uint256",
              "name": "amount",
              "type": "uint256"
            },
            {
              "internalType": "uint256",
              "name": "shares",
              "type": "uint256"
            },
            {
              "internalType": "uint256",
              "name": "day",
              "type": "uint256"
            },
            {
              "internalType": "uint256",
              "name": "weight",
              "type": "uint256"
            }
          ],
          "internalType": "struct GuessGame.Operation[]",
          "name": "",
          "type": "tuple[]"
        }
      ],
      "stateMutability": "view",
      "type": "function"
    },
    {
      "inputs": [
        {
          "internalType": "address",
          "name": "_factory",
          "type": "address"
        },
        {
          "internalType": "address",
          "name": "_tokenAddress",
          "type": "address"
        },
        {
          "internalType": "uint256",
          "name": "_startTime",
          "type": "uint256"
        },
        {
          "internalType": "uint256",
          "name": "_interval",
          "type": "uint256"
        },
        {
          "internalType": "uint256",
          "name": "_interval_nums",
          "type": "uint256"
        }
      ],
      "name": "initialize",
      "outputs": [],
      "stateMutability": "nonpayable",
      "type": "function"
    },
    {
      "inputs": [
        {
          "internalType": "uint256",
          "name": "",
          "type": "uint256"
        },
        {
          "internalType": "uint256",
          "name": "",
          "type": "uint256"
        }
      ],
      "name": "numberUsers",
      "outputs": [
        {
          "internalType": "address",
          "name": "",
          "type": "address"
        }
      ],
      "stateMutability": "view",
      "type": "function"
    },
    {
      "inputs": [],
      "name": "setFinalNumber",
      "outputs": [],
      "stateMutability": "nonpayable",
      "type": "function"
    },
    {
      "inputs": [
        {
          "internalType": "uint256[]",
          "name": "weights",
          "type": "uint256[]"
        }
      ],
      "name": "setIntervalWeight",
      "outputs": [],
      "stateMutability": "nonpayable",
      "type": "function"
    },
    {
      "inputs": [
        {
          "internalType": "address[]",
          "name": "users",
          "type": "address[]"
        },
        {
          "internalType": "uint256[]",
          "name": "rewards",
          "type": "uint256[]"
        }
      ],
      "name": "setRewardForUsers",
      "outputs": [],
      "stateMutability": "nonpayable",
      "type": "function"
    },
    {
      "inputs": [
        {
          "internalType": "uint256",
          "name": "",
          "type": "uint256"
        }
      ],
      "name": "stakedNumbers",
      "outputs": [
        {
          "internalType": "uint256",
          "name": "",
          "type": "uint256"
        }
      ],
      "stateMutability": "view",
      "type": "function"
    },
    {
      "inputs": [],
      "name": "totalBetCount",
      "outputs": [
        {
          "internalType": "uint256",
          "name": "",
          "type": "uint256"
        }
      ],
      "stateMutability": "view",
      "type": "function"
    },
    {
      "inputs": [
        {
          "internalType": "uint256",
          "name": "",
          "type": "uint256"
        }
      ],
      "name": "totalStakedSharePerNumber",
      "outputs": [
        {
          "internalType": "uint256",
          "name": "",
          "type": "uint256"
        }
      ],
      "stateMutability": "view",
      "type": "function"
    },
    {
      "inputs": [
        {
          "internalType": "uint256",
          "name": "",
          "type": "uint256"
        }
      ],
      "name": "uniqAddresses",
      "outputs": [
        {
          "internalType": "address",
          "name": "",
          "type": "address"
        }
      ],
      "stateMutability": "view",
      "type": "function"
    },
    {
      "inputs": [
        {
          "internalType": "address",
          "name": "",
          "type": "address"
        },
        {
          "internalType": "uint256",
          "name": "",
          "type": "uint256"
        }
      ],
      "name": "userChosenNumbers",
      "outputs": [
        {
          "internalType": "uint256",
          "name": "",
          "type": "uint256"
        }
      ],
      "stateMutability": "view",
      "type": "function"
    },
    {
      "inputs": [
        {
          "internalType": "address",
          "name": "",
          "type": "address"
        },
        {
          "internalType": "uint256",
          "name": "",
          "type": "uint256"
        }
      ],
      "name": "userNumberShareMapping",
      "outputs": [
        {
          "internalType": "uint256",
          "name": "",
          "type": "uint256"
        }
      ],
      "stateMutability": "view",
      "type": "function"
    },
    {
      "inputs": [
        {
          "internalType": "address",
          "name": "",
          "type": "address"
        },
        {
          "internalType": "uint256",
          "name": "",
          "type": "uint256"
        }
      ],
      "name": "userNumberStakedAmountMapping",
      "outputs": [
        {
          "internalType": "uint256",
          "name": "",
          "type": "uint256"
        }
      ],
      "stateMutability": "view",
      "type": "function"
    },
    {
      "inputs": [
        {
          "internalType": "address",
          "name": "",
          "type": "address"
        },
        {
          "internalType": "uint256",
          "name": "",
          "type": "uint256"
        }
      ],
      "name": "userOperationHistory",
      "outputs": [
        {
          "internalType": "uint256",
          "name": "number",
          "type": "uint256"
        },
        {
          "internalType": "uint256",
          "name": "timestamp",
          "type": "uint256"
        },
        {
          "internalType": "uint256",
          "name": "amount",
          "type": "uint256"
        },
        {
          "internalType": "uint256",
          "name": "shares",
          "type": "uint256"
        },
        {
          "internalType": "uint256",
          "name": "day",
          "type": "uint256"
        },
        {
          "internalType": "uint256",
          "name": "weight",
          "type": "uint256"
        }
      ],
      "stateMutability": "view",
      "type": "function"
    },
    {
      "inputs": [
        {
          "internalType": "address",
          "name": "",
          "type": "address"
        }
      ],
      "name": "userRewardAmount",
      "outputs": [
        {
          "internalType": "uint256",
          "name": "",
          "type": "uint256"
        }
      ],
      "stateMutability": "view",
      "type": "function"
    },
    {
      "inputs": [
        {
          "internalType": "uint256",
          "name": "_number",
          "type": "uint256"
        }
      ],
      "name": "withdraw",
      "outputs": [],
      "stateMutability": "nonpayable",
      "type": "function"
    }
  ],
  "transactionHash": "0x8f0bd0219d4dafe8b2ea8c8a1c50e6ce13e841a929b538960e1b791f8f60340e",
  "args": [],
  "numDeployments": 1,
  "solcInputHash": "30ea8db3481f80ff74f8d11954b2e290",
  "bytecode": "0x608060405260006042553480156200001657600080fd5b506200002162000027565b620000e9565b600054610100900460ff1615620000945760405162461bcd60e51b815260206004820152602760248201527f496e697469616c697a61626c653a20636f6e747261637420697320696e697469604482015266616c697a696e6760c81b606482015260840160405180910390fd5b60005460ff9081161015620000e7576000805460ff191660ff9081179091556040519081527f7f26b83ff96e1f2b6a682f133852f6798a09c465da95921460cefb38474024989060200160405180910390a15b565b6126d280620000f96000396000f3fe608060405234801561001057600080fd5b50600436106102115760003560e01c806379caeba211610125578063bfba5031116100ad578063d80516a51161007c578063d80516a51461049e578063ddaa26ad146104b3578063e2e257da146104bc578063ff6fddf6146104cf578063ffc84656146104d857600080fd5b8063bfba503114610445578063c45a015514610465578063c87c336b14610478578063d13f90b41461048b57600080fd5b8063b599afc8116100f4578063b599afc8146103d8578063b6bb744a146103e1578063b88a802f14610421578063b8b7903d14610429578063bf41e16f1461043c57600080fd5b806379caeba21461039357806389facb20146103b35780639555a284146103bc57806399f91c28146103cf57600080fd5b806337ba682d116101a857806351e3b12b1161017757806351e3b12b1461033a5780636a6077251461035a5780636df84f2d1461036d5780637048c29814610382578063773a11541461038b57600080fd5b806337ba682d146102d357806338a70be6146102dc5780633b074669146103075780633da7b7b91461031a57600080fd5b80631d4db94e116101e45780631d4db94e1461026f5780631fb18d521461028257806329db1be6146102ad5780632e1a7d4d146102c057600080fd5b806301e25d2d1461021657806309415c17146102315780630bdf53001461023a5780631c2f03ec14610265575b600080fd5b61021e6104eb565b6040519081526020015b60405180910390f35b61021e60495481565b60345461024d906001600160a01b031681565b6040516001600160a01b039091168152602001610228565b61026d6105d0565b005b61024d61027d366004611ebd565b6107d5565b61021e610290366004611ef2565b603e60209081526000928352604080842090915290825290205481565b60355461024d906001600160a01b031681565b61026d6102ce366004611ebd565b6107ff565b61021e60375481565b61021e6102ea366004611ef2565b603f60209081526000928352604080842090915290825290205481565b61026d610315366004611f1c565b610919565b61032d610328366004611f3e565b6110db565b6040516102289190611f60565b61021e610348366004611f3e565b60456020526000908152604090205481565b61021e610368366004611ebd565b61118a565b6103756111ab565b604051610228919061201e565b61021e60485481565b61021e6114ae565b6103a66103a1366004611f3e565b611504565b604051610228919061212b565b61021e60385481565b61021e6103ca366004611ef2565b61156d565b61021e603c5481565b61021e60425481565b6103f46103ef366004611ef2565b61159e565b604080519687526020870195909552938501929092526060840152608083015260a082015260c001610228565b61026d6115f2565b61024d610437366004611f1c565b6116e0565b61021e603a5481565b61021e610453366004611ebd565b60466020526000908152604090205481565b60335461024d906001600160a01b031681565b61026d610486366004612214565b611718565b61026d6104993660046122d4565b6118c0565b6104a6611a60565b6040516102289190612387565b61021e60365481565b61026d6104ca36600461244b565b611cb7565b61021e60395481565b61021e6104e6366004611ebd565b611daf565b600080604780548060200260200160405190810160405280929190818152602001828054801561053a57602002820191906000526020600020905b815481526020019060010190808311610526575b5050505050905060008060005b83518110156105ba57600084828151811061056457610564612488565b6020908102919091018101516000818152604690925260409091205490915061058d81866124b4565b945061059982826124cc565b6105a390856124b4565b9350505080806105b2906124eb565b915050610547565b5060006105c7838361251c565b95945050505050565b6033546001600160a01b031633146106035760405162461bcd60e51b81526004016105fa90612530565b60405180910390fd5b6000603854603654426106169190612567565b610620919061251c565b90506039548110156106445760405162461bcd60e51b81526004016105fa9061257e565b6000604780548060200260200160405190810160405280929190818152602001828054801561069257602002820191906000526020600020905b81548152602001906001019080831161067e575b5050505050905060008060005b83518110156107125760008482815181106106bc576106bc612488565b602090810291909101810151600081815260469092526040909120549091506106e581866124b4565b94506106f182826124cc565b6106fb90856124b4565b93505050808061070a906124eb565b91505061069f565b50600061071f838361251c565b604881905590508060006107316114ae565b905061044c61074082846124b4565b11156107505761044c9150610778565b606561075c82846124b4565b101561076b5760659150610778565b61077581836124b4565b91505b610783606483612567565b604981905560408051828152602081018690529081018390529092507f29dc0f72cc6bec32fa534972f7d9266bcf3fc044f9ac8abac9b9f1ef7e3d87d59060600160405180910390a150505050505050565b604181815481106107e557600080fd5b6000918252602090912001546001600160a01b0316905081565b6033546001600160a01b031633146108295760405162461bcd60e51b81526004016105fa90612530565b603754421161087a5760405162461bcd60e51b815260206004820152601f60248201527f477565737347616d653a204e4f545f494e5f57495448445241575f54494d450060448201526064016105fa565b60355460405163a9059cbb60e01b8152336004820152602481018390526001600160a01b039091169063a9059cbb90604401602060405180830381600087803b1580156108c657600080fd5b505af11580156108da573d6000803e3d6000fd5b505050506040513d601f19601f820116820180604052508101906108fe91906125bf565b5080603c60008282546109119190612567565b909155505050565b603954603b54146109815760405162461bcd60e51b815260206004820152602c60248201527f477565737347616d653a20706c656173652073657420696e74657276616c207760448201526b195a59da1d1cc8199a5c9cdd60a21b60648201526084016105fa565b60008111801561099b575069152d02c7e14af68000008111155b6109e75760405162461bcd60e51b815260206004820152601f60248201527f477565737347616d653a20494e56414c49445f544f4b454e5f414d4f554e540060448201526064016105fa565b60365442101580156109fb57506037544211155b610a475760405162461bcd60e51b815260206004820152601e60248201527f477565737347616d653a204e4f545f494e5f5354414b494e475f54494d45000060448201526064016105fa565b60018210158015610a5a57506103e88211155b610aa65760405162461bcd60e51b815260206004820152601960248201527f477565737347616d653a20494e56414c49445f4e554d4245520000000000000060448201526064016105fa565b6035546040516370a0823160e01b815233600482015282916001600160a01b0316906370a082319060240160206040518083038186803b158015610ae957600080fd5b505afa158015610afd573d6000803e3d6000fd5b505050506040513d601f19601f82011682018060405250810190610b2191906125e1565b1015610b6f5760405162461bcd60e51b815260206004820152601f60248201527f477565737347616d653a20494e53554646494349454e545f42414c414e43450060448201526064016105fa565b33600090815260406020819052902054600311610b9e5760405162461bcd60e51b81526004016105fa906125fa565b3360009081526040602081905290205460031415610c41576000805b33600090815260406020819052902054811015610c2157336000908152604060208190529020805485919083908110610bf557610bf5612488565b90600052602060002001541415610c0f5760019150610c21565b80610c19816124eb565b915050610bba565b5080610c3f5760405162461bcd60e51b81526004016105fa906125fa565b505b336000908152603e6020908152604080832085845290915290205469152d02c7e14af680000090610c7290836124b4565b1115610ccc5760405162461bcd60e51b815260206004820152602360248201527f477565737347616d653a204558434545445f4d41585f5354414b45445f414d4f60448201526215539560ea1b60648201526084016105fa565b6035546040516323b872dd60e01b8152336004820152306024820152604481018390526001600160a01b03909116906323b872dd90606401602060405180830381600087803b158015610d1e57600080fd5b505af1158015610d32573d6000803e3d6000fd5b505050506040513d601f19601f82011682018060405250810190610d5691906125bf565b50600060385460365442610d6a9190612567565b610d74919061251c565b90506000603b8281548110610d8b57610d8b612488565b906000526020600020015483610da191906124cc565b905080603a6000828254610db591906124b4565b9250508190555082603c6000828254610dce91906124b4565b909155505033600090815260406020819052902054610e2a57604180546001810182556000919091527f7c9785e8241615bc80415d89775984a1337d15dc1bf4ce50f41988b2a2b336a70180546001600160a01b031916331790555b603d6000336001600160a01b03166001600160a01b031681526020019081526020016000206040518060c00160405280868152602001428152602001858152602001838152602001848152602001603b8581548110610e8b57610e8b612488565b6000918252602080832090910154909252835460018181018655948252828220845160069092020190815583830151948101949094556040808401516002860155606084015160038601556080840151600486015560a090930151600590940193909355338352603e8152818320878452905281208054859290610f109084906124b4565b9091555050336000908152603f60209081526040808320878452909152902054610f56573360009081526040602081815290822080546001810182559083529120018490555b336000908152603f6020908152604080832087845290915281208054839290610f809084906124b4565b90915550506000848152604360209081526040808320338452909152902054610fd25760008481526044602090815260408220805460018101825590835291200180546001600160a01b031916331790555b600084815260436020908152604080832033845290915281208054839290610ffb9084906124b4565b909155505060008481526046602052604090205461104957604780546001810182556000919091527fc43c1e24e1884c4e28a16bbd9506f60b5ca9f18fc90635e729d3cfe13abcf001018490555b600084815260466020526040812080548392906110679084906124b4565b9250508190555060016042600082825461108191906124b4565b9091555050604080513381526020810186905290810184905260608101839052608081018290527f313542362b7ef4b2100d3c4f16d63ed95430c90ac1e73b4f11a12e8bd1508ee89060a00160405180910390a150505050565b6001600160a01b0381166000908152603d60209081526040808320805482518185028101850190935280835260609493849084015b8282101561117e57838290600052602060002090600602016040518060c0016040529081600082015481526020016001820154815260200160028201548152602001600382015481526020016004820154815260200160058201548152505081526020019060010190611110565b50929695505050505050565b6047818154811061119a57600080fd5b600091825260209091200154905081565b6060600060478054806020026020016040519081016040528092919081815260200182805480156111fb57602002820191906000526020600020905b8154815260200190600101908083116111e7575b505050505090506000815167ffffffffffffffff81111561121e5761121e61213e565b60405190808252806020026020018201604052801561127a57816020015b6112676040518060800160405280600081526020016000815260200160608152602001606081525090565b81526020019060019003908161123c5790505b50905060005b82518110156114a757600083828151811061129d5761129d612488565b60209081029190910181015160008181526044909252604082205490925067ffffffffffffffff8111156112d3576112d361213e565b60405190808252806020026020018201604052801561133157816020015b61131e60405180606001604052806000815260200160006001600160a01b03168152602001600081525090565b8152602001906001900390816112f15790505b50905060005b6000838152604460205260409020548110156113eb57600083815260446020526040812080548390811061136d5761136d612488565b6000918252602080832090910154604080516060810182528881526001600160a01b039092168284018190528885526043845281852081865290935292839020549281019290925284519092508490849081106113cc576113cc612488565b60200260200101819052505080806113e3906124eb565b915050611337565b5060408051608081018252838152600084815260466020908152838220548184015285825260448152908390208054845181840281018401865281815293948501939283018282801561146757602002820191906000526020600020905b81546001600160a01b03168152600190910190602001808311611449575b505050505081526020018281525084848151811061148757611487612488565b60200260200101819052505050808061149f906124eb565b915050611280565b5092915050565b60008042446114be600143612567565b60408051602081019490945283019190915240606082015260800160408051601f19818403018152919052805160209091012090506114fe60c98261263d565b91505090565b6001600160a01b03811660009081526040602081815291819020805482518185028101850190935280835260609383018282801561156157602002820191906000526020600020905b81548152602001906001019080831161154d575b50505050509050919050565b6040602052816000526040600020818154811061158957600080fd5b90600052602060002001600091509150505481565b603d60205281600052604060002081815481106115ba57600080fd5b600091825260209091206006909102018054600182015460028301546003840154600485015460059095015493965091945092909186565b6000603854603654426116059190612567565b61160f919061251c565b90506039548110156116335760405162461bcd60e51b81526004016105fa9061257e565b3360009081526045602052604081208054918291906116528380612567565b909155505060355460405163a9059cbb60e01b8152336004820152602481018390526001600160a01b039091169063a9059cbb90604401602060405180830381600087803b1580156116a357600080fd5b505af11580156116b7573d6000803e3d6000fd5b505050506040513d601f19601f820116820180604052508101906116db91906125bf565b505050565b604460205281600052604060002081815481106116fc57600080fd5b6000918252602090912001546001600160a01b03169150829050565b6033546001600160a01b031633146117425760405162461bcd60e51b81526004016105fa90612530565b6000603854603654426117559190612567565b61175f919061251c565b90506039548110156117835760405162461bcd60e51b81526004016105fa9061257e565b81518351146117e45760405162461bcd60e51b815260206004820152602760248201527f477565737347616d653a20494e56414c49445f55534552535f524557415244536044820152660be988a9c8ea8960cb1b60648201526084016105fa565b6000805b845181101561186757600085828151811061180557611805612488565b60200260200101519050600085838151811061182357611823612488565b60200260200101519050808461183991906124b4565b6001600160a01b0390921660009081526045602052604090205591508061185f816124eb565b9150506117e8565b50603c548111156118ba5760405162461bcd60e51b815260206004820152601d60248201527f477565737347616d653a204558434545445f5245574152445f504f4f4c00000060448201526064016105fa565b50505050565b600054610100900460ff16158080156118e05750600054600160ff909116105b806118fa5750303b1580156118fa575060005460ff166001145b61195d5760405162461bcd60e51b815260206004820152602e60248201527f496e697469616c697a61626c653a20636f6e747261637420697320616c72656160448201526d191e481a5b9a5d1a585b1a5e995960921b60648201526084016105fa565b6000805460ff191660011790558015611980576000805461ff0019166101001790555b611988611dbf565b603380546001600160a01b0319166001600160a01b03881617905560368490556119b282846124cc565b6119bc90856124b4565b60375560388390556039829055603480546001600160a01b0387166001600160a01b03199182168117909255603580549091169091179055604080516020810190915260648152611a1190603b906001611e1d565b508015611a58576000805461ff0019169055604051600181527f7f26b83ff96e1f2b6a682f133852f6798a09c465da95921460cefb38474024989060200160405180910390a15b505050505050565b611ab6604051806101400160405280600081526020016000815260200160008152602001606081526020016060815260200160008152602001606081526020016060815260200160008152602001600081525090565b6040518061014001604052806042548152602001603a548152602001603c5481526020016047805480602002602001604051908101604052809291908181526020018280548015611b2657602002820191906000526020600020905b815481526020019060010190808311611b12575b505050505081526020016041805480602002602001604051908101604052809291908181526020018280548015611b8657602002820191906000526020600020905b81546001600160a01b03168152600190910190602001808311611b68575b50505091835250503360008181526045602090815260408083205482860152928252603d81528282208054845181840281018401865281815294909501949092909184015b82821015611c3957838290600052602060002090600602016040518060c0016040529081600082015481526020016001820154815260200160028201548152602001600382015481526020016004820154815260200160058201548152505081526020019060010190611bcb565b5050509082525033600090815260406020818152918190208054825181850281018501909352808352938301939192909190830182828015611c9a57602002820191906000526020600020905b815481526020019060010190808311611c86575b505050505081526020016048548152602001604954815250905090565b6033546001600160a01b03163314611ce15760405162461bcd60e51b81526004016105fa90612530565b603954815114611d3d5760405162461bcd60e51b815260206004820152602160248201527f477565737347616d653a20494e56414c49445f574549474854535f4c454e47546044820152600960fb1b60648201526084016105fa565b60475415611d985760405162461bcd60e51b815260206004820152602260248201527f477565737347616d653a205354414b45445f4e554d4245525f4e4f545f454d50604482015261545960f01b60648201526084016105fa565b8051611dab90603b906020840190611e6d565b5050565b603b818154811061119a57600080fd5b600054610100900460ff16611de65760405162461bcd60e51b81526004016105fa90612651565b611dee611df0565b565b600054610100900460ff16611e175760405162461bcd60e51b81526004016105fa90612651565b60018055565b828054828255906000526020600020908101928215611e5d579160200282015b82811115611e5d578251829060ff16905591602001919060010190611e3d565b50611e69929150611ea8565b5090565b828054828255906000526020600020908101928215611e5d579160200282015b82811115611e5d578251825591602001919060010190611e8d565b5b80821115611e695760008155600101611ea9565b600060208284031215611ecf57600080fd5b5035919050565b80356001600160a01b0381168114611eed57600080fd5b919050565b60008060408385031215611f0557600080fd5b611f0e83611ed6565b946020939093013593505050565b60008060408385031215611f2f57600080fd5b50508035926020909101359150565b600060208284031215611f5057600080fd5b611f5982611ed6565b9392505050565b6020808252825182820181905260009190848201906040850190845b81811015611fce578351805184526020808201519085015260408082015190850152606080820151908501526080808201519085015260a0908101519084015260c08301938501939250600101611f7c565b50909695505050505050565b600081518084526020808501945080840160005b838110156120135781516001600160a01b031687529582019590820190600101611fee565b509495945050505050565b60006020808301818452808551808352604092508286019150828160051b8701018488016000805b848110156120ec57603f198a85030186528251608081518652898201518a87015288820151818a88015261207c82880182611fda565b606093840151888203898601528051808352908d01948794509250908c01905b808410156120d6578451805183528d8101516001600160a01b03168e8401528c01518c830152938c0193600193909301929082019061209c565b50988b0198965050509288019250600101612046565b50919998505050505050505050565b600081518084526020808501945080840160005b838110156120135781518752958201959082019060010161210f565b602081526000611f5960208301846120fb565b634e487b7160e01b600052604160045260246000fd5b604051601f8201601f1916810167ffffffffffffffff8111828210171561217d5761217d61213e565b604052919050565b600067ffffffffffffffff82111561219f5761219f61213e565b5060051b60200190565b600082601f8301126121ba57600080fd5b813560206121cf6121ca83612185565b612154565b82815260059290921b840181019181810190868411156121ee57600080fd5b8286015b8481101561220957803583529183019183016121f2565b509695505050505050565b6000806040838503121561222757600080fd5b823567ffffffffffffffff8082111561223f57600080fd5b818501915085601f83011261225357600080fd5b813560206122636121ca83612185565b82815260059290921b8401810191818101908984111561228257600080fd5b948201945b838610156122a75761229886611ed6565b82529482019490820190612287565b965050860135925050808211156122bd57600080fd5b506122ca858286016121a9565b9150509250929050565b600080600080600060a086880312156122ec57600080fd5b6122f586611ed6565b945061230360208701611ed6565b94979496505050506040830135926060810135926080909101359150565b600081518084526020808501945080840160005b83811015612013578151805188526020808201519089015260408082015190890152606080820151908901526080808201519089015260a0908101519088015260c08701965090820190600101612335565b60208152815160208201526020820151604082015260408201516060820152600060608301516101408060808501526123c46101608501836120fb565b91506080850151601f19808685030160a08701526123e28483611fda565b935060a087015160c087015260c08701519150808685030160e08701526124098483612321565b935060e0870151915061010081878603018188015261242885846120fb565b908801516101208881019190915290970151929095019190915250929392505050565b60006020828403121561245d57600080fd5b813567ffffffffffffffff81111561247457600080fd5b612480848285016121a9565b949350505050565b634e487b7160e01b600052603260045260246000fd5b634e487b7160e01b600052601160045260246000fd5b600082198211156124c7576124c761249e565b500190565b60008160001904831182151516156124e6576124e661249e565b500290565b60006000198214156124ff576124ff61249e565b5060010190565b634e487b7160e01b600052601260045260246000fd5b60008261252b5761252b612506565b500490565b60208082526017908201527f477565737347616d653a20554e415554484f52495a4544000000000000000000604082015260600190565b6000828210156125795761257961249e565b500390565b60208082526021908201527f477565737347616d653a204e4f545f494e5f534554544c454d454e545f54494d6040820152604560f81b606082015260800190565b6000602082840312156125d157600080fd5b81518015158114611f5957600080fd5b6000602082840312156125f357600080fd5b5051919050565b60208082526023908201527f477565737347616d653a204558434545445f4d41585f5354414b45445f4e554d6040820152622122a960e91b606082015260800190565b60008261264c5761264c612506565b500690565b6020808252602b908201527f496e697469616c697a61626c653a20636f6e7472616374206973206e6f74206960408201526a6e697469616c697a696e6760a81b60608201526080019056fea264697066735822122053d65762125c6be8e9d51816bef26ad6143075f1e90854641669b3dface22dad64736f6c63430008090033",
  "devdoc": {
    "kind": "dev",
    "methods": {
      "constructor": {
        "custom:oz-upgrades-unsafe-allow": "constructor"
      }
    },
    "version": 1
  },
  "userdoc": {
    "kind": "user",
    "methods": {},
    "version": 1
  },
  "storageLayout": {
    "storage": [
      {
        "astId": 6,
        "contract": "contracts/GuessGame.sol:GuessGame",
        "label": "_initialized",
        "offset": 0,
        "slot": "0",
        "type": "t_uint8"
      },
      {
        "astId": 9,
        "contract": "contracts/GuessGame.sol:GuessGame",
        "label": "_initializing",
        "offset": 1,
        "slot": "0",
        "type": "t_bool"
      },
      {
        "astId": 182,
        "contract": "contracts/GuessGame.sol:GuessGame",
        "label": "_status",
        "offset": 0,
        "slot": "1",
        "type": "t_uint256"
      },
      {
        "astId": 240,
        "contract": "contracts/GuessGame.sol:GuessGame",
        "label": "__gap",
        "offset": 0,
        "slot": "2",
        "type": "t_array(t_uint256)49_storage"
      },
      {
        "astId": 3375,
        "contract": "contracts/GuessGame.sol:GuessGame",
        "label": "factory",
        "offset": 0,
        "slot": "51",
        "type": "t_contract(IGuessGameFactory)4791"
      },
      {
        "astId": 3409,
        "contract": "contracts/GuessGame.sol:GuessGame",
        "label": "TOKEN_ADDRESS",
        "offset": 0,
        "slot": "52",
        "type": "t_address"
      },
      {
        "astId": 3412,
        "contract": "contracts/GuessGame.sol:GuessGame",
        "label": "UNDERLYING_TOKEN",
        "offset": 0,
        "slot": "53",
        "type": "t_contract(IERC20)1878"
      },
      {
        "astId": 3414,
        "contract": "contracts/GuessGame.sol:GuessGame",
        "label": "START_TIME",
        "offset": 0,
        "slot": "54",
        "type": "t_uint256"
      },
      {
        "astId": 3416,
        "contract": "contracts/GuessGame.sol:GuessGame",
        "label": "END_TIME",
        "offset": 0,
        "slot": "55",
        "type": "t_uint256"
      },
      {
        "astId": 3418,
        "contract": "contracts/GuessGame.sol:GuessGame",
        "label": "INTERVAL",
        "offset": 0,
        "slot": "56",
        "type": "t_uint256"
      },
      {
        "astId": 3420,
        "contract": "contracts/GuessGame.sol:GuessGame",
        "label": "INTERVAL_NUMS",
        "offset": 0,
        "slot": "57",
        "type": "t_uint256"
      },
      {
        "astId": 3422,
        "contract": "contracts/GuessGame.sol:GuessGame",
        "label": "TOTAL_SHARE",
        "offset": 0,
        "slot": "58",
        "type": "t_uint256"
      },
      {
        "astId": 3425,
        "contract": "contracts/GuessGame.sol:GuessGame",
        "label": "INTERVAL_WEIGHTS",
        "offset": 0,
        "slot": "59",
        "type": "t_array(t_uint256)dyn_storage"
      },
      {
        "astId": 3427,
        "contract": "contracts/GuessGame.sol:GuessGame",
        "label": "REWARD_POOL",
        "offset": 0,
        "slot": "60",
        "type": "t_uint256"
      },
      {
        "astId": 3433,
        "contract": "contracts/GuessGame.sol:GuessGame",
        "label": "userOperationHistory",
        "offset": 0,
        "slot": "61",
        "type": "t_mapping(t_address,t_array(t_struct(Operation)3388_storage)dyn_storage)"
      },
      {
        "astId": 3439,
        "contract": "contracts/GuessGame.sol:GuessGame",
        "label": "userNumberStakedAmountMapping",
        "offset": 0,
        "slot": "62",
        "type": "t_mapping(t_address,t_mapping(t_uint256,t_uint256))"
      },
      {
        "astId": 3445,
        "contract": "contracts/GuessGame.sol:GuessGame",
        "label": "userNumberShareMapping",
        "offset": 0,
        "slot": "63",
        "type": "t_mapping(t_address,t_mapping(t_uint256,t_uint256))"
      },
      {
        "astId": 3450,
        "contract": "contracts/GuessGame.sol:GuessGame",
        "label": "userChosenNumbers",
        "offset": 0,
        "slot": "64",
        "type": "t_mapping(t_address,t_array(t_uint256)dyn_storage)"
      },
      {
        "astId": 3453,
        "contract": "contracts/GuessGame.sol:GuessGame",
        "label": "uniqAddresses",
        "offset": 0,
        "slot": "65",
        "type": "t_array(t_address)dyn_storage"
      },
      {
        "astId": 3456,
        "contract": "contracts/GuessGame.sol:GuessGame",
        "label": "totalBetCount",
        "offset": 0,
        "slot": "66",
        "type": "t_uint256"
      },
      {
        "astId": 3462,
        "contract": "contracts/GuessGame.sol:GuessGame",
        "label": "numberUserShareMapping",
        "offset": 0,
        "slot": "67",
        "type": "t_mapping(t_uint256,t_mapping(t_address,t_uint256))"
      },
      {
        "astId": 3467,
        "contract": "contracts/GuessGame.sol:GuessGame",
        "label": "numberUsers",
        "offset": 0,
        "slot": "68",
        "type": "t_mapping(t_uint256,t_array(t_address)dyn_storage)"
      },
      {
        "astId": 3471,
        "contract": "contracts/GuessGame.sol:GuessGame",
        "label": "userRewardAmount",
        "offset": 0,
        "slot": "69",
        "type": "t_mapping(t_address,t_uint256)"
      },
      {
        "astId": 3475,
        "contract": "contracts/GuessGame.sol:GuessGame",
        "label": "totalStakedSharePerNumber",
        "offset": 0,
        "slot": "70",
        "type": "t_mapping(t_uint256,t_uint256)"
      },
      {
        "astId": 3478,
        "contract": "contracts/GuessGame.sol:GuessGame",
        "label": "stakedNumbers",
        "offset": 0,
        "slot": "71",
        "type": "t_array(t_uint256)dyn_storage"
      },
      {
        "astId": 3480,
        "contract": "contracts/GuessGame.sol:GuessGame",
        "label": "AVERAGE_NUMBER",
        "offset": 0,
        "slot": "72",
        "type": "t_uint256"
      },
      {
        "astId": 3482,
        "contract": "contracts/GuessGame.sol:GuessGame",
        "label": "FINAL_NUMBER",
        "offset": 0,
        "slot": "73",
        "type": "t_uint256"
      }
    ],
    "types": {
      "t_address": {
        "encoding": "inplace",
        "label": "address",
        "numberOfBytes": "20"
      },
      "t_array(t_address)dyn_storage": {
        "base": "t_address",
        "encoding": "dynamic_array",
        "label": "address[]",
        "numberOfBytes": "32"
      },
      "t_array(t_struct(Operation)3388_storage)dyn_storage": {
        "base": "t_struct(Operation)3388_storage",
        "encoding": "dynamic_array",
        "label": "struct GuessGame.Operation[]",
        "numberOfBytes": "32"
      },
      "t_array(t_uint256)49_storage": {
        "base": "t_uint256",
        "encoding": "inplace",
        "label": "uint256[49]",
        "numberOfBytes": "1568"
      },
      "t_array(t_uint256)dyn_storage": {
        "base": "t_uint256",
        "encoding": "dynamic_array",
        "label": "uint256[]",
        "numberOfBytes": "32"
      },
      "t_bool": {
        "encoding": "inplace",
        "label": "bool",
        "numberOfBytes": "1"
      },
      "t_contract(IERC20)1878": {
        "encoding": "inplace",
        "label": "contract IERC20",
        "numberOfBytes": "20"
      },
      "t_contract(IGuessGameFactory)4791": {
        "encoding": "inplace",
        "label": "contract IGuessGameFactory",
        "numberOfBytes": "20"
      },
      "t_mapping(t_address,t_array(t_struct(Operation)3388_storage)dyn_storage)": {
        "encoding": "mapping",
        "key": "t_address",
        "label": "mapping(address => struct GuessGame.Operation[])",
        "numberOfBytes": "32",
        "value": "t_array(t_struct(Operation)3388_storage)dyn_storage"
      },
      "t_mapping(t_address,t_array(t_uint256)dyn_storage)": {
        "encoding": "mapping",
        "key": "t_address",
        "label": "mapping(address => uint256[])",
        "numberOfBytes": "32",
        "value": "t_array(t_uint256)dyn_storage"
      },
      "t_mapping(t_address,t_mapping(t_uint256,t_uint256))": {
        "encoding": "mapping",
        "key": "t_address",
        "label": "mapping(address => mapping(uint256 => uint256))",
        "numberOfBytes": "32",
        "value": "t_mapping(t_uint256,t_uint256)"
      },
      "t_mapping(t_address,t_uint256)": {
        "encoding": "mapping",
        "key": "t_address",
        "label": "mapping(address => uint256)",
        "numberOfBytes": "32",
        "value": "t_uint256"
      },
      "t_mapping(t_uint256,t_array(t_address)dyn_storage)": {
        "encoding": "mapping",
        "key": "t_uint256",
        "label": "mapping(uint256 => address[])",
        "numberOfBytes": "32",
        "value": "t_array(t_address)dyn_storage"
      },
      "t_mapping(t_uint256,t_mapping(t_address,t_uint256))": {
        "encoding": "mapping",
        "key": "t_uint256",
        "label": "mapping(uint256 => mapping(address => uint256))",
        "numberOfBytes": "32",
        "value": "t_mapping(t_address,t_uint256)"
      },
      "t_mapping(t_uint256,t_uint256)": {
        "encoding": "mapping",
        "key": "t_uint256",
        "label": "mapping(uint256 => uint256)",
        "numberOfBytes": "32",
        "value": "t_uint256"
      },
      "t_struct(Operation)3388_storage": {
        "encoding": "inplace",
        "label": "struct GuessGame.Operation",
        "members": [
          {
            "astId": 3377,
            "contract": "contracts/GuessGame.sol:GuessGame",
            "label": "number",
            "offset": 0,
            "slot": "0",
            "type": "t_uint256"
          },
          {
            "astId": 3379,
            "contract": "contracts/GuessGame.sol:GuessGame",
            "label": "timestamp",
            "offset": 0,
            "slot": "1",
            "type": "t_uint256"
          },
          {
            "astId": 3381,
            "contract": "contracts/GuessGame.sol:GuessGame",
            "label": "amount",
            "offset": 0,
            "slot": "2",
            "type": "t_uint256"
          },
          {
            "astId": 3383,
            "contract": "contracts/GuessGame.sol:GuessGame",
            "label": "shares",
            "offset": 0,
            "slot": "3",
            "type": "t_uint256"
          },
          {
            "astId": 3385,
            "contract": "contracts/GuessGame.sol:GuessGame",
            "label": "day",
            "offset": 0,
            "slot": "4",
            "type": "t_uint256"
          },
          {
            "astId": 3387,
            "contract": "contracts/GuessGame.sol:GuessGame",
            "label": "weight",
            "offset": 0,
            "slot": "5",
            "type": "t_uint256"
          }
        ],
        "numberOfBytes": "192"
      },
      "t_uint256": {
        "encoding": "inplace",
        "label": "uint256",
        "numberOfBytes": "32"
      },
      "t_uint8": {
        "encoding": "inplace",
        "label": "uint8",
        "numberOfBytes": "1"
      }
    }
  }
}